:100000000C942A000C943C000C943C000C943C0092
:100010000C943C000C943C000C943C000C943C0070
:100020000C943C000C943C000C943C000C943C0060
:100030000C943C000C943C000C943C000C943C0050
:100040000C943C000C943C000C943C000C943C0040
:100050000C943C0011241FBECFE5D8E0DEBFCDBF1D
:1000600020E0A0E6B0E001C01D92A037B207E1F7A2
:100070000E9462000C949D000C940000109260009D
:100080001092610084E28093620098E19093630093
:100090009093640080936500109266001092670050
:1000A00008951BB888E18AB986E880BD83E389B9E1
:1000B00010BC08955D9BFECF8CB908955F9BFECF69
:1000C0008CB108958FEF87BB8ABB81BB0E943E0035
:1000D0000E945100C0E0D0E01FEFFE01E05AFF4F48
:1000E00080810E945A001BBB87EA91E60197F1F7D5
:1000F00000C000001BBA87EA91E60197F1F700C043
:1001000000000E945E0018BB87EA91E60197F1F7B4
:1001100000C0000018BA87EA91E60197F1F700C025
:100120000000CE01019687709078992324F40197FE
:0E013000886F9F6F0196EC01D0CFF894FFCF3F
:00000001FF
