:100000000C942A000C9447000C9447000C94470071
:100010000C9447000C9447000C9447000C94470044
:100020000C9447000C9447000C9447000C94470034
:100030000C9447000C9447000C9447000C94470024
:100040000C9447000C9447000C9447000C94470014
:100050000C94470011241FBECFE5D8E0DEBFCDBF12
:1000600012E0A0E6B0E0E0E8F1E002C005900D92F9
:10007000A030B107D9F722E0A0E0B2E001C01D92A4
:10008000A830B207E1F70E94B4000C94BE000C94B3
:10009000000080E88093000280E48093010280E207
:1000A0008093020280E18093030288E0809304023F
:1000B00084E08093050282E08093060281E08093D1
:1000C00007020895BF92CF92DF92EF92FF920F93B3
:1000D0001F93CF93DF93082F80E690E0C0E0D2E03B
:1000E0000F2EF8ECBF2EF02DC12C28E032E0FF24BB
:1000F000FA9460E072E029C0073629F41081109567
:100100001BBBF2BA0BC0023729F4FBBA1081109561
:1001100012BB04C01081109512BB1BBB1D9118BBF4
:1001200016EA1A95F1F700C03296A217B30721F725
:10013000415051094115510521F0DB01ED2DFE2DF6
:10014000DBCF40968C179D0729F04B2D5C2DD82EC8
:10015000E92EF3CFDF91CF911F910F91FF90EF9098
:10016000DF90CF90BF9008958FEF8ABB87BB81BB94
:100170000E94490087E60E946200FCCFF894FFCFFE
:1001800000007F00FF00CC00CC00CC00FF007F000F
:1001900000003C007E00DB00DB00DB00FF00FF0016
:1001A0000000C300C300C300C300E7007E003C00A2
:1001B00000007E00BD00C300C300C300FF00FF00BD
:1001C0000000DB00DB00DB00DB00DB00FF00FF00EA
:1001D0000000D800D800D800D800D800FF00FF00E9
:1001E0001F00DF00D800DB00DB00DB00FF00FF00AA
:1001F0000000FF00FF00180018001800FF00FF00BB
:10020000C300C300C300FF00FF00C300C300C3005E
:10021000C000C000C000FF00FF00C300CF00CF003F
:100220000000C300E7007E003C001800FF00FF0054
:10023000030003000300030003000300FF00FF00AE
:10024000FF00FF006000700070006000FF00FF0012
:10025000FF00FF001C0038007000E000FF00FF00FE
:100260007E00FF00C300C300C300C300FF007E0088
:1002700000007000F800CC00CC00CC00FF00FF00B4
:100280007E00FF00CF00DF00DB00C300FF007E0028
:100290007900FB00DF00DE00DC00D800FF00FF007B
:1002A000CE00DF00DB00DB00DB00DB00FB007300C7
:1002B000C000C000C000FF00FF00C000C000C000C0
:1002C000FE00FF000300030003000300FF00FE0028
:1002D000E000FC001E00030003001E00FC00E00024
:1002E000FE00FF000300FF00FF000300FF00FE0010
:1002F0004200E7007E003C003C007E00E700420038
:100300004000E00070003F003F007000E00040004F
:10031000C300E300F300FB00DF00CF00C700C30011
:00000001FF
