S01B0000417564696F546F46726571537065637472756D2E7372656373
S11300000C94FA030C9417040C9417040C9417041E
S11300100C9417040C9417040C9417040C941704F0
S11300200C9417040C9417040C9417040C941704E0
S11300300C9417040C943B060C9417040C941704AA
S11300400C9417040C9417040C9417040C941704C0
S11300500C941704000000000000000000000000E1
S1130060000000000000000000000000000000008C
S11300700000000000050B10161C21272D32383D0E
S113008043494E545A5F656A70767B81878C929798
S11300909DA3A8AE000B16212D38434E5A65707BE4
S11300A087929DA8000B16212C38434E5A65707B0D
S11300B086929DA800102132435465768797A8053F
S11300C0162738495A6A7B8C9DAE0B1C2D3D4E5F1A
S11300D0708192A300162D435A70879D00162C43FD
S11300E05A70869D00162D435970869D00162D4327
S11300F05970879D001C3854708CA8102C49658158
S11301009D05213D597692AE16324E6A87A30B2780
S1130110435F7B970021436587A816385A7B9D0B64
S11301202D4E70920021436587A816385A7B9D0B8B
S11301302C4E709200274E769D10385F86AE214972
S113014070970B325981A81C436A92052C547BA3E7
S1130150163D658C002D5A87002C5A86002D598631
S1130160002D5987002C5A87B32C5986002D5A86A6
S1130170B32C5A870032659716497BAE2D5F9210D7
S11301804376A8275A8C0B3D70A321548605386A00
S11301909D1C4E81003870A82C659D215992164EE5
S11301A0870B437BB33870A82D659D215A92164E58
S11301B0860B437B003D7B0543810B4986104E8CA7
S11301C01654921C5997215F9D2765A32C6AA83267
S11301D070AE3876004387165A9D2D7000438716FB
S11301E05A9D2C70004386165A9D2C700043861627
S11301F0599D2D700049922770054E972D760B540A
S11302009D327B105AA33881165FA83D861C65AECB
S1130210438C216A004E9D388621700B59A8439265
S11302202C7B1665B34E9D388621700B59A84392DA
S11302302C7B16650054A8499D3D923287277B1C70
S1130240701065055AAE4EA34397388C2D812176E4
S1130250166A0B5F0000AE005C010B02B902670373
S11302601504C2046F051C06C80674071F08C908D4
S113027073091C0AC40A6B0B120CB70C5C0DFF0D3E
S1130280A20E430FE30F82101F11BB115612F0127E
S113029087131E14B3144615D7156716F51682175F
S11302A00C1895181B19A019231AA31A221B9F1B9B
S11302B0191C911C071D7B1DEC1D5B1EC81E321FE3
S11302C09A1FFF1F6220C22020217B21D4212A22D1
S11302D07D22CE221B236723AF23F52337247724E3
S11302E0B424EF2426255B258C25BB25E6250F2683
S11302F03526582678269426AE26C526D926E926FC
S1130300F726022709270E2710270E270927022779
S1130310F726E926D926C526AE2694267826582619
S113032035260F26E625BB258C255B252625EF24BF
S1130330B42477243724F523AF2367231B23CE2249
S11303407D222A22D4217B212021C2206220FF1F6A
S11303509A1F321FC81E5B1EEC1D7B1D071D911CBE
S1130360191C9F1B221BA31A231AA0191B199518C9
S11303700C188217F5166716D7154615B3141E14F4
S11303808713F0125612BB111F118210E30F430F93
S1130390A20EFF0D5C0DB70C120C6B0BC40A1C0AE9
S11303A07309C9081F087407C8061C066F05C20430
S11303B015046703B9020B025C01AE00000052FF92
S11303C0A4FEF5FD47FD99FCEBFB3EFB91FAE4F935
S11303D038F98CF8E1F737F78DF6E4F53CF595F448
S11303E0EEF349F3A4F201F25EF1BDF01DF07EEFED
S11303F0E1EE45EEAAED10ED79ECE2EB4DEBBAEA55
S113040029EA99E90BE97EE8F4E76BE7E5E660E6BB
S1130410DDE55DE5DEE461E4E7E36FE3F9E285E26F
S113042014E2A5E138E1CEE066E001E09EDF3EDFC4
S1130430E0DE85DE2CDED6DD83DD32DDE5DC99DC35
S113044051DC0BDCC9DB89DB4CDB11DBDADAA5DA46
S113045074DA45DA1ADAF1D9CBD9A8D988D96CD9A2
S113046052D93BD927D917D909D9FED8F7D8F2D808
S1130470F0D8F2D8F7D8FED809D917D927D93BD95B
S113048052D96CD988D9A8D9CBD9F1D91ADA45DA95
S113049074DAA5DADADA11DB4CDB89DBC9DB0BDCD5
S11304A051DC99DCE5DC32DD83DDD6DD2CDE85DE56
S11304B0E0DE3EDF9EDF01E066E0CEE038E1A5E16C
S11304C014E285E2F9E26FE3E7E361E4DEE45DE58B
S11304D0DDE560E6E5E66BE7F4E77EE80BE999E93C
S11304E029EABAEA4DEBE2EB78EC10EDAAED45EE21
S11304F0E1EE7EEF1DF0BDF05EF101F2A4F249F3EE
S1130500EEF395F43CF5E4F58DF637F7E1F78CF866
S113051038F9E4F991FA3EFBEBFB99FC47FDF5FD54
S1130520A4FE52FF10270E2709270227F726E926E3
S1130530D926C526AE2694267826582635260F2693
S1130540E625BB258C255B252625EF24B4247724BA
S11305503724F523AF2367231B23CE227D222A22AF
S1130560D4217B212021C2206220FF1F9A1F321F29
S1130570C81E5B1EEC1D7B1D071D911C191C9F1BB7
S1130580221BA31A231AA0191B1995180C188217D9
S1130590F5166716D7154615B3141E148813F012F2
S11305A05612BB111F118210E30F430FA20EFF0D51
S11305B05C0DB70C120C6B0BC40A1C0A7309C90836
S11305C01F087407C8061C066F05C20415046703D8
S11305D0B9020B025C01AE00000052FFA4FEF5FD5F
S11305E047FD99FCEBFB3EFB91FAE4F938F98CF8F2
S11305F0E1F737F78DF6E4F53CF595F4EEF349F3BE
S1130600A4F201F25EF1BDF01DF07EEFE1EE45EEE5
S1130610AAED10ED79ECE2EB4DEBBAEA29EA99E99F
S11306200BE97EE8F4E76BE7E5E660E6DDE55DE52A
S1130630DEE461E4E7E36FE3F9E285E214E2A5E1D5
S113064038E1CEE066E001E09EDF3EDFE0DE85DEFD
S11306502CDED6DD83DD32DDE5DC99DC51DC0BDC20
S1130660C9DB89DB4CDB11DBDADAA5DA74DA45DACB
S11306701ADAF1D9CBD9A8D988D96CD952D93BD9AE
S113068027D917D909D9FED8F7D8F2D8F0D8F2D893
S1130690F7D8FED809D917D927D93BD952D96CD95B
S11306A088D9A8D9CBD9F1D91ADA45DA74DAA5DA16
S11306B0DADA11DB4CDB89DBC9DB0BDC51DC99DCDE
S11306C0E5DC32DD83DDD6DD2CDE85DEE0DE3EDFFB
S11306D09EDF01E066E0CEE038E1A5E114E285E2C8
S11306E0F9E26FE3E7E361E4DEE45DE5DDE560E6BE
S11306F0E5E66BE7F4E77EE80BE999E929EABAEA6B
S11307004DEBE2EB78EC10EDAAED45EEE1EE7EEF79
S11307101DF0BDF05EF101F2A4F249F3EEF395F49D
S11307203CF5E4F58DF637F7E1F78CF838F9E4F9A0
S113073091FA3EFBEBFB99FC47FDF5FDA4FE52FF4D
S11307400000AE005C010B02B90267031504C20489
S11307506F051C06C80674071F08C90873091C0A1C
S1130760C40A6B0B120CB70C5C0DFF0DA20E430FE9
S1130770E30F82101F11BB115612F01288131E14BE
S1130780B3144615D7156716F51682170C18951865
S11307901B19A019231AA31A221B9F1B191C911C95
S11307A0071D7B1DEC1D5B1EC81E321F9A1FFF1FF9
S11307B06220C22020217B21D4212A227D22CE2224
S11307C01B236723AF23F52337247724B424EF2492
S11307D026255B258C25BB25E6250F2635265826A0
S11307E078269426AE26C526D926E926F72602279A
S11307F009270E2711241FBECFE5D8E0DEBFCDBFE9
S113080010E0A0E6B0E0ECEBFDE002C005900D9234
S1130810A036B107D9F721E0A0E6B0E001C01D92EF
S1130820A33BB207E1F70E945F060C94DC060C942C
S113083000001F93CF93DF93A0E4B1E0E8E4F1E07C
S113084020E531E011E0D3E0C7E07FE06FE15FE352
S11308504FE79FEF8D918B3010F090831BC08A304F
S113086010F0408317C0893010F0508313C08830D3
S113087010F060830FC0873010F070830BC0863097
S113088010F0C08307C0853010F0D08303C08230DD
S113089008F010833196E217F307E1F6DF91CF9168
S11308A01F910895ACEBB2E06FEF41E050E01FC040
S11308B018BA843091052CF02081209525BB62BBA9
S11308C004C065BB2081209522BB9A01082E02C07A
S11308D0220F331F0A94E2F728BB24E62A95F1F786
S11308E0019631968830910519F7119729F0E8E4BB
S11308F0F1E080E090E0DCCF08952F923F924F9298
S11309005F926F927F928F929F92AF92BF92CF929B
S1130910DF92EF92FF920F931F93CF93DF9300D058
S113092000D000D0CDB7DEB780EC90E09A83898305
S1130930A4E5B0E0BC83AB830F2EF0EA2F2EF0E0E9
S11309403F2EF02D09811A81F80114821582168236
S1130950178210821182128213820F2EF0E6AF2EBC
S1130960F0E0BF2EF02D8B809C80F401F491D50132
S1130970CD90DD905D010D2C000CEE08FF08EF2FEB
S1130980F0E0EE0FFF1FEE0FFF1FFE83ED83EC5D23
S1130990FA4FA591B491A70196010E949806D80137
S11309A04D905D906D907C90460E571E681E791E8A
S11309B0F8014082518262827382ED81FE81EC5A99
S11309C0FD4FA591B49122273327A9012C193D0984
S11309D04E095F090E949806D8011496CD90DD90C7
S11309E0ED90FC901797C60ED71EE81EF91EF8016D
S11309F0C482D582E682F782FFEF8F1A9F0AA2147F
S1130A00B30409F0B2CFC301B20120E032EE44E0F6
S1130A1050E00E947906D8012D933D934D935C9349
S1130A201397C701B60120E032EE44E050E00E9483
S1130A307906F801248335834683578389819A8113
S1130A4008969A838983AB81BC819096BC83AB83DF
S1130A508054914009F076CFE8ECF0E085E791E02E
S1130A609A8389839C01DF01408151816281738172
S1130A7077235CF470956095509541955F4F6F4F67
S1130A807F4F408351836283738314964D915D91AC
S1130A906D917C91179777236CF4709560955095C0
S1130AA041955F4F6F4F7F4F14964D935D936D93B8
S1130AB07C9317974D915D916D917C91139714964A
S1130AC08D919D910D90BC91A02D480F591F6A1FC7
S1130AD07B1FDB01CA0177231CF40396A11DB11D02
S1130AE0AC01BD01759567955795479575956795C3
S1130AF057954795D9014D935D939D013896B1E083
S1130B00E034FB0709F0AFCF26960FB6F894DEBFAA
S1130B100FBECDBFDF91CF911F910F91FF90EF904A
S1130B20DF90CF90BF90AF909F908F907F906F9009
S1130B305F904F903F902F90089584B7806884BF52
S1130B4084B7806884BF8FEF81BB84BB87BB089563
S1130B5010927201E0E6F0E0A3E7B1E080EA90E0F1
S1130B60119211921D921D92E817F907C9F7E0EC52
S1130B70F0E080E491E014821582168217821082DC
S1130B801182128213823896E817F907A1F70895A3
S1130B9080E687B983E886B908958DE790E09BBD28
S1130BA08ABD1FBC89E08EBD08953699FECF24B15D
S1130BB030E030937101209370018A30B1F485B133
S1130BC00024220F331F001C220F331F001C232F6D
S1130BD0302D90E0880F991F880F991F282B392BEF
S1130BE0309371012093700106C085B190E0909319
S1130BF07101809370018091700190917101089549
S1130C00CF93DF93109272011DBC1CBC88B7806126
S1130C1088BF369A08B604FEFDCFC0917201D0E0B9
S1130C2088E00E94D505CC0FDD1FC05ADF4F9983A1
S1130C308883809172018F5F80937201803220F3E8
S1130C40DF91CF910895E3E7F1E0A0EAB0E043EB50
S1130C5051E02081318182819381820F931F9923F6
S1130C600CF40196959587958D939D933496E4178E
S1130C70F50779F708951F920F920FB60F9211247A
S1130C808F938CB1882321F010925101109250015E
S1130C908F910F900FBE0F901F901895E0EAF0E02F
S1130CA0A0E4B1E020EB30E0808132968D93E2172E
S1130CB0F307D1F70E9419040E94520408950E9478
S1130CC09D050E94C8050E94CD050E94A8050E94AA
S1130CD000060E947D040E9423060E944E062FEE09
S1130CE089E492E0215080409040E1F700C0000088
S1130CF0EECF052E97FB1EF400940E94900657FD3C
S1130D0007D00E94A00607FC03D04EF40C94900672
S1130D1050954095309521953F4F4F4F5F4F089523
S1130D2090958095709561957F4F8F4F9F4F089553
S1130D30B7FF0C94C2060E94C206821B930B08954F
S1130D40A1E21A2EAA1BBB1BFD010DC0AA1FBB1FCB
S1130D50EE1FFF1FA217B307E407F50720F0A21B3D
S1130D60B30BE40BF50B661F771F881F991F1A94AA
S1130D7069F760957095809590959B01AC01BD01D4
S1130D80CF0108950E94CD06A59F900DB49F900DAC
S1130D90A49F800D911D11240895A29FB001B39FBB
S1130DA0C001A39F700D811D1124911DB29F700D70
S10F0DB0811D1124911D0895F894FFCFBB
S9030000FC
