:100000000C94FA020C9417030C9417030C94170326
:100010000C9417030C9417030C9417030C941703F8
:100020000C9417030C9417030C9417030C941703E8
:100030000C9417030C9417030C9417030C941703D8
:100040000C9417030C9417030C9417030C941703C8
:100050000C9417030000AE005C010B02B9026703A9
:100060001504C2046F051C06C80674071F08C908DA
:1000700073091C0AC40A6B0B120CB70C5C0DFF0D44
:10008000A20E430FE30F82101F11BB115612F01284
:1000900087131E14B3144615D7156716F516821765
:1000A0000C1895181B19A019231AA31A221B9F1BA1
:1000B000191C911C071D7B1DEC1D5B1EC81E321FE9
:1000C0009A1FFF1F6220C22020217B21D4212A22D7
:1000D0007D22CE221B236723AF23F52337247724E9
:1000E000B424EF2426255B258C25BB25E6250F2689
:1000F0003526582678269426AE26C526D926E92602
:10010000F726022709270E2710270E27092702277F
:10011000F726E926D926C526AE269426782658261F
:1001200035260F26E625BB258C255B252625EF24C5
:10013000B42477243724F523AF2367231B23CE224F
:100140007D222A22D4217B212021C2206220FF1F70
:100150009A1F321FC81E5B1EEC1D7B1D071D911CC4
:10016000191C9F1B221BA31A231AA0191B199518CF
:100170000C188217F5166716D7154615B3141E14FA
:100180008713F0125612BB111F118210E30F430F99
:10019000A20EFF0D5C0DB70C120C6B0BC40A1C0AEF
:1001A0007309C9081F087407C8061C066F05C20436
:1001B00015046703B9020B025C01AE00000052FF98
:1001C000A4FEF5FD47FD99FCEBFB3EFB91FAE4F93B
:1001D00038F98CF8E1F737F78DF6E4F53CF595F44E
:1001E000EEF349F3A4F201F25EF1BDF01DF07EEFF3
:1001F000E1EE45EEAAED10ED79ECE2EB4DEBBAEA5B
:1002000029EA99E90BE97EE8F4E76BE7E5E660E6C1
:10021000DDE55DE5DEE461E4E7E36FE3F9E285E275
:1002200014E2A5E138E1CEE066E001E09EDF3EDFCA
:10023000E0DE85DE2CDED6DD83DD32DDE5DC99DC3B
:1002400051DC0BDCC9DB89DB4CDB11DBDADAA5DA4C
:1002500074DA45DA1ADAF1D9CBD9A8D988D96CD9A8
:1002600052D93BD927D917D909D9FED8F7D8F2D80E
:10027000F0D8F2D8F7D8FED809D917D927D93BD961
:1002800052D96CD988D9A8D9CBD9F1D91ADA45DA9B
:1002900074DAA5DADADA11DB4CDB89DBC9DB0BDCDB
:1002A00051DC99DCE5DC32DD83DDD6DD2CDE85DE5C
:1002B000E0DE3EDF9EDF01E066E0CEE038E1A5E172
:1002C00014E285E2F9E26FE3E7E361E4DEE45DE591
:1002D000DDE560E6E5E66BE7F4E77EE80BE999E942
:1002E00029EABAEA4DEBE2EB78EC10EDAAED45EE27
:1002F000E1EE7EEF1DF0BDF05EF101F2A4F249F3F4
:10030000EEF395F43CF5E4F58DF637F7E1F78CF86C
:1003100038F9E4F991FA3EFBEBFB99FC47FDF5FD5A
:10032000A4FE52FF10270E2709270227F726E926E9
:10033000D926C526AE2694267826582635260F2699
:10034000E625BB258C255B252625EF24B4247724C0
:100350003724F523AF2367231B23CE227D222A22B5
:10036000D4217B212021C2206220FF1F9A1F321F2F
:10037000C81E5B1EEC1D7B1D071D911C191C9F1BBD
:10038000221BA31A231AA0191B1995180C188217DF
:10039000F5166716D7154615B3141E148813F012F8
:1003A0005612BB111F118210E30F430FA20EFF0D57
:1003B0005C0DB70C120C6B0BC40A1C0A7309C9083C
:1003C0001F087407C8061C066F05C20415046703DE
:1003D000B9020B025C01AE00000052FFA4FEF5FD65
:1003E00047FD99FCEBFB3EFB91FAE4F938F98CF8F8
:1003F000E1F737F78DF6E4F53CF595F4EEF349F3C4
:10040000A4F201F25EF1BDF01DF07EEFE1EE45EEEB
:10041000AAED10ED79ECE2EB4DEBBAEA29EA99E9A5
:100420000BE97EE8F4E76BE7E5E660E6DDE55DE530
:10043000DEE461E4E7E36FE3F9E285E214E2A5E1DB
:1004400038E1CEE066E001E09EDF3EDFE0DE85DE03
:100450002CDED6DD83DD32DDE5DC99DC51DC0BDC26
:10046000C9DB89DB4CDB11DBDADAA5DA74DA45DAD1
:100470001ADAF1D9CBD9A8D988D96CD952D93BD9B4
:1004800027D917D909D9FED8F7D8F2D8F0D8F2D899
:10049000F7D8FED809D917D927D93BD952D96CD961
:1004A00088D9A8D9CBD9F1D91ADA45DA74DAA5DA1C
:1004B000DADA11DB4CDB89DBC9DB0BDC51DC99DCE4
:1004C000E5DC32DD83DDD6DD2CDE85DEE0DE3EDF01
:1004D0009EDF01E066E0CEE038E1A5E114E285E2CE
:1004E000F9E26FE3E7E361E4DEE45DE5DDE560E6C4
:1004F000E5E66BE7F4E77EE80BE999E929EABAEA71
:100500004DEBE2EB78EC10EDAAED45EEE1EE7EEF7F
:100510001DF0BDF05EF101F2A4F249F3EEF395F4A3
:100520003CF5E4F58DF637F7E1F78CF838F9E4F9A6
:1005300091FA3EFBEBFB99FC47FDF5FDA4FE52FF53
:100540000000AE005C010B02B90267031504C2048F
:100550006F051C06C80674071F08C90873091C0A22
:10056000C40A6B0B120CB70C5C0DFF0DA20E430FEF
:10057000E30F82101F11BB115612F01288131E14C4
:10058000B3144615D7156716F51682170C1895186B
:100590001B19A019231AA31A221B9F1B191C911C9B
:1005A000071D7B1DEC1D5B1EC81E321F9A1FFF1FFF
:1005B0006220C22020217B21D4212A227D22CE222A
:1005C0001B236723AF23F52337247724B424EF2498
:1005D00026255B258C25BB25E6250F2635265826A6
:1005E00078269426AE26C526D926E926F7260227A0
:1005F00009270E2711241FBECFE5D8E0DEBFCDBFEF
:1006000012E0A0E6B0E0EEEEF5E102C005900D923A
:10061000A037B107D9F723E0A0E7B2E001C01D92EF
:10062000A13FB207E1F70E9495070C94F50A0C94DC
:100630000000672B09F09FC0009711F4D898089527
:100640008130910511F4D99808958230910511F403
:10065000DA9808958330910511F4DB980895843079
:10066000910511F4DC9808958530910511F4DD9819
:1006700008958630910511F4DE980895873091052C
:1006800011F4DF9808958A30910511F4C098089507
:100690008B30910511F4C19808958C30910511F4B7
:1006A000C29808958D30910511F4C39808958E3045
:1006B000910511F4C49808958F30910511F4C598EF
:1006C00008958031910511F4C698089581319105FE
:1006D00011F4C79808958431910511F4A8980895EC
:1006E0008531910511F4A99808958631910511F489
:1006F000AA9808958731910511F4AB98089588312F
:10070000910511F4AC9808958931910511F4AD98D3
:1007100008958A31910511F4AE9808958B319105B1
:1007200011F4AF9808958E31910511F490980895C1
:100730008F31910511F4919808958032910511F44B
:10074000929808958132910511F493980895823218
:10075000910511F4949808958332910511F49598B8
:1007600008958432910511F496980895859709F0BB
:100770009FC097980895009711F4D89A08958130F2
:10078000910511F4D99A08958230910511F4DA9AFD
:1007900008958330910511F4DB9A08958430910512
:1007A00011F4DC9A08958530910511F4DD9A0895CD
:1007B0008630910511F4DE9A08958730910511F481
:1007C000DF9A08958A30910511F4C09A08958B300C
:1007D000910511F4C19A08958C30910511F4C29AD3
:1007E00008958D30910511F4C39A08958E309105C6
:1007F00011F4C49A08958F30910511F4C59A0895A3
:100800008031910511F4C69A08958131910511F452
:10081000C79A08958431910511F4A89A08958531F5
:10082000910511F4A99A08958631910511F4AA9AB7
:1008300008958731910511F4AB9A08958831910597
:1008400011F4AC9A08958931910511F4AD9A089587
:100850008A31910511F4AE9A08958B31910511F406
:10086000AF9A08958E31910511F4909A08958F31C1
:10087000910511F4919A08958032910511F4929A9C
:1008800008958132910511F4939A08958232910569
:1008900011F4949A08958332910511F4959A08956C
:1008A0008432910511F4969A0895859709F4979AE0
:1008B0000895CF93C82F80FF07C061E070E082E207
:1008C00090E00E94190306C060E070E082E290E0D0
:1008D0000E941903C1FF07C061E070E083E290E06D
:1008E0000E94190306C060E070E083E290E00E947D
:1008F0001903C2FF07C061E070E084E290E00E944B
:10090000190306C060E070E084E290E00E941903E1
:10091000C3FF07C061E070E085E290E00E94190328
:1009200006C060E070E085E290E00E941903CF917C
:100930000895CF93C82F60E070E08AE190E00E94B4
:1009400019038C2F0E94590461E070E08BE190E064
:100950000E94190389EF90E00197F1F700C00000B1
:1009600060E070E08BE190E00E94190389EF90E075
:100970000197F1F700C00000CF91089580E00E9438
:10098000990481E00E9499040895CF93C62F813085
:1009900059F480E8860F82958F700E9499048C2FFD
:1009A0008F700E9499040CC0823051F480EC860F45
:1009B00082958F700E9499048C2F8F700E949904E9
:1009C000CF91089580E00E94590487E893E1019750
:1009D000F1F700C0000083E00E94990481EE94E0EA
:1009E0000197F1F700C0000083E00E9499048DEBAD
:1009F0009AE00197F1F700C0000083E00E9499049B
:100A000082E00E94990482E00E94990488E00E949A
:100A1000990480E00E9499048CE00E94990480E08F
:100A20000E94990486E00E9499040895CF93C82FEC
:100A300061E070E08AE190E00E9419038C2F8295BA
:100A40008F700E94590461E070E08BE190E00E9499
:100A5000190389EF90E00197F1F700C0000060E012
:100A600070E08BE190E00E94190389EF90E001971C
:100A7000F1F700C000008C2F8F700E94590461E0D4
:100A800070E08BE190E00E94190389EF90E00197FC
:100A9000F1F700C0000060E070E08BE190E00E94A0
:100AA000190389EF90E00197F1F700C00000CF91A2
:100AB0000895CF93DF93EC018881882331F021964C
:100AC0000E94160589918111FBCFDF91CF91089586
:100AD0002F923F924F925F926F927F928F929F924E
:100AE000AF92BF92CF92DF92EF92FF920F931F933C
:100AF000CF93DF93CDB7DEB727970FB6F894DEBF5D
:100B00000FBECDBF80ED92E09A838983A0E7B0E06D
:100B1000BC83AB830F2EF0EB2F2EF2E03F2EF02D97
:100B200009811A81F80114821582168217821082B7
:100B30001182128213820F2EF0E7AF2EF2E0BF2E49
:100B4000F02D8B809C80F40121914F012D83D501E4
:100B5000CD90DD905D010D2C000CEE08FF08E22F1A
:100B6000F0E0EE0FFF1FEE0FFF1FFF83EE83EC5D43
:100B7000FC4FA591B491A70196010E94CF07D8011F
:100B80004D905D906D907C90460E571E681E791EAC
:100B9000F8014082518262827382EE81FF81EC5AB9
:100BA000FF4FA591B49122273327A9012C193D09A4
:100BB0004E095F090E94CF07D8011496CD90DD90B1
:100BC000ED90FC901797C60ED71EE81EF91EF8018F
:100BD000C482D582E682F782A214B30409F0B3CFAF
:100BE000C301B20120E032EE44E050E00E94B007C1
:100BF000D8012D933D934D935C931397C701B60194
:100C000020E032EE44E050E00E94B007F801248377
:100C100035834683578389819A8108969A8389838D
:100C2000AB81BC819096BC83AB838055934009F027
:100C300077CFE8EDF2E085E793E09A8389839C0122
:100C4000DF01408151816281738177235CF470956B
:100C50006095509541955F4F6F4F7F4F4083518313
:100C60006283738314964D915D916D917C9117977A
:100C700077236CF470956095509541955F4F6F4F59
:100C80007F4F14964D935D936D937C9317974D9181
:100C90005D916D917C91139714968D919D910D901E
:100CA000BC91A02D480F591F6A1F7B1FDB01CA0191
:100CB00077231CF40396A11DB11DAC01BD017595F0
:100CC0006795579547957595679557954795D901B8
:100CD0004D935D936D937D939D013896B3E0E03520
:100CE000FB0709F0ADCF27960FB6F894DEBF0FBE15
:100CF000CDBFDF91CF911F910F91FF90EF90DF90CB
:100D0000CF90BF90AF909F908F907F906F905F90AB
:100D10004F903F902F90089580E687B983E886B979
:100D200008958DE790E09BBD8ABD1FBC89E08EBD14
:100D3000089510927003A0E7B2E0E1E7F3E081EFDD
:100D400093E01D921D921192119211921192E81747
:100D5000F907B9F7E0EDF2E080E593E0148215823F
:100D60001682178210821182128213823896E81737
:100D7000F907A1F708953699FECF24B130E03093FA
:100D80006F0320936E038A30B1F485B10024220FE3
:100D9000331F001C220F331F001C232F302D90E027
:100DA000880F991F880F991F282B392B30936F03B9
:100DB00020936E0306C085B190E090936F038093FB
:100DC0006E0380916E0390916F030895CF93DF932C
:100DD000109270031DBC1CBC88B7806188BF369A16
:100DE00008B604FEFDCFC0917003D0E088E00E94F9
:100DF000BB06CC0FDD1FC059DD4F998388838091DE
:100E000070038F5F80937003803220F3DF91CF9166
:100E10000895EF92FF920F931F93CF93DF93E1E733
:100E2000F3E0C0EBD2E021EF33E0408151816281F9
:100E3000738184819581A681B781480F591F6A1FEC
:100E40007B1FDB01CA0177231CF40196A11DB11D94
:100E5000B595A7959795879599231CF099838883D5
:100E600002C01982188238962296E217F307E9F633
:100E70000E94BE0460E081E00E94C504C0EBD2E0A5
:100E80008F818F938E818F938D818F938C818F93A0
:100E90008B818F938A818F9389818F9388818F93A0
:100EA0000F2EF4E6EF2EF0E0FF2EF02DFF92EF92E2
:100EB00000E513E01F930F930E940B08C8010E94E6
:100EC000590560E082E00E94C5048F858F938E856E
:100ED0008F938D858F938C858F938B858F938A8548
:100EE0008F9389858F9388858F93FF92EF921F93BD
:100EF0000F930E940B08C8010E94590560E081E031
:100F00000E94C50460E082E00E94C5048DB79EB7D0
:100F100048960FB6F8949EBF0FBE8DBFDF91CF915C
:100F20001F910F91FF90EF9008958FEF81BB84BBCD
:100F30000E948C060E9491060E94E2040E9499067B
:100F40000E94E6060E9468050E9409072FEE89E4C8
:100F500092E0215080409040E1F700C00000F0CFC7
:100F6000052E97FB1EF400940E94C70757FD07D07B
:100F70000E94DA0707FC03D04EF40C94C707509583
:100F80004095309521953F4F4F4F5F4F0895909575
:100F90008095709561957F4F8F4F9F4F08950E9468
:100FA000FC07A59F900DB49F900DA49F800D911DEF
:100FB00011240895A1E21A2EAA1BBB1BFD010DC02E
:100FC000AA1FBB1FEE1FFF1FA217B307E407F507F9
:100FD00020F0A21BB30BE40BF50B661F771F881FD5
:100FE000991F1A9469F760957095809590959B016B
:100FF000AC01BD01CF010895A29FB001B39FC00114
:10100000A39F700D811D1124911DB29F700D811D34
:101010001124911D0895AEE0B0E0E1E1F8E00C94F8
:10102000CC0A0D891E8986E08C831A8309838FEF91
:101030009FE79E838D83AE01475E5F4F6F89788DFA
:10104000CE0101960E942D08EF81F885E00FF11F77
:1010500010822E96E4E00C94E80AABE0B0E0E3E303
:10106000F8E00C94BE0A6C017B018A01FC01178236
:101070001682838181FFCCC1CE0101963C01F6012D
:101080009381F70193FD859193FF81917F018823DF
:1010900009F4BAC1853239F493FD859193FF8191AA
:1010A0007F01853229F4B60190E00E94240AE7CF3F
:1010B000912C212C312CFFE1F315D8F08B3279F0F3
:1010C00038F4803279F08332A1F4232D20611DC0E1
:1010D0008D3261F0803369F4232D216016C0832D99
:1010E0008260382EE32DE4603E2E2AC0F32DF86096
:1010F0001DC037FC2DC020ED280F2A3040F08E3265
:10110000B9F436FC81C1232D2064322E19C036FE7D
:1011100006C08AE0989E200D1124922E11C0EAE0AC
:101120002E9E200D1124222EF32DF0623F2E08C09A
:101130008C3621F4832D8068382E02C0883641F425
:10114000F70193FD859193FF81917F018111B3CFC9
:10115000982F9F7D9554933028F40C5F1F4F9FE389
:1011600099830DC0833631F0833771F0833509F0F0
:1011700059C021C0F801808189830E5F1F4F8824E8
:101180008394912C530113C02801F2E04F0E511C9F
:10119000F801A080B18036FE03C0692D70E002C066
:1011A0006FEF7FEFC5010E94190A4C018201F32DF8
:1011B000FF773F2E16C0280122E0420E511CF80195
:1011C000A080B18036FE03C0692D70E002C06FEFD1
:1011D0007FEFC5010E940E0A4C01F32DF0683F2EEF
:1011E000820133FC1BC0822D90E088169906B0F472
:1011F000B60180E290E00E94240A2A94F4CFF5011F
:1012000037FC859137FE81915F01B60190E00E9425
:10121000240A21102A9421E0821A91088114910451
:1012200071F7E8C0843611F0893641F5F80137FED0
:1012300007C060817181828193810C5F1F4F08C05C
:1012400060817181072E000C880B990B0E5F1F4F78
:10125000F32DFF763F2E97FF09C0909580957095EE
:1012600061957F4F8F4F9F4FF0683F2E2AE030E00F
:10127000A3010E94600A882E861845C0853731F484
:10128000232D2F7EB22E2AE030E025C0932D997FAA
:10129000B92E8F36C1F018F4883579F0B5C0803793
:1012A00019F0883721F0B0C0E92FE061BE2EB4FEFE
:1012B0000DC0FB2DF460BF2E09C034FE0AC0292FDB
:1012C0002660B22E06C028E030E005C020E130E004
:1012D00002C020E132E0F801B7FE07C060817181F1
:1012E000828193810C5F1F4F06C06081718180E015
:1012F00090E00E5F1F4FA3010E94600A882E86189F
:10130000FB2DFF773F2E36FE0DC0232D2E7FA22E04
:10131000891458F434FE0BC032FC09C0832D8E7E34
:10132000A82E05C0B82CA32C03C0B82C01C0B92C22
:10133000A4FE0FC0FE01E80DF11D8081803321F471
:101340009A2D997EA92E09C0A2FE06C0B394B3942B
:1013500004C08A2D867809F0B394A3FC11C0A0FEC6
:1013600006C0B21488F4280C922C9B180EC0B2143C
:1013700060F4B60180E290E00E94240AB394F7CFB3
:10138000B21418F42B1802C0982C212CA4FE10C003
:10139000B60180E390E00E94240AA2FE17C0A1FCDF
:1013A00003C088E790E002C088E590E0B6010CC079
:1013B0008A2D867859F0A1FE02C08BE201C080E23E
:1013C000A7FC8DE2B60190E00E94240A891438F44B
:1013D000B60180E390E00E94240A9A94F7CF8A94A1
:1013E000F301E80DF11D8081B60190E00E94240A0E
:1013F0008110F5CF222009F442CEB60180E290E0C0
:101400000E94240A2A94F6CFF6018681978102C0B1
:101410008FEF9FEF2B96E2E10C94DA0AFC01059026
:10142000615070400110D8F7809590958E0F9F1FE6
:101430000895FC016150704001900110D8F780952B
:1014400090958E0F9F1F08950F931F93CF93DF9357
:10145000FB01238121FD03C08FEF9FEF2CC022FFF2
:1014600016C046815781248135814217530744F4C1
:10147000A081B1819D012F5F3F4F318320838C93E9
:10148000268137812F5F3F4F3783268314C08B011E
:10149000EC01FB010084F185E02D0995892BE1F633
:1014A000D80116968D919C911797019617969C934B
:1014B0008E931697CE01DF91CF911F910F910895D2
:1014C000FA01AA27283051F1203181F1E8946F9375
:1014D0006E7F6E5F7F4F8F4F9F4FAF4FB1E03ED01B
:1014E000B4E03CD0670F781F891F9A1FA11D680FB9
:1014F000791F8A1F911DA11D6A0F711D811D911DEC
:10150000A11D20D009F468943F912AE0269F112460
:101510003019305D3193DEF6CF010895462F4770C4
:10152000405D4193B3E00FD0C9F7F6CF462F4F701F
:10153000405D4A3318F0495D31FD4052419302D07D
:10154000A9F7EACFB4E0A695979587957795679523
:10155000BA95C9F700976105710508959B01AC0123
:101560000A2E06945795479537952795BA95C9F74A
:10157000620F731F841F951FA01D08952F923F9225
:101580004F925F926F927F928F929F92AF92BF9293
:10159000CF92DF92EF92FF920F931F93CF93DF933F
:1015A000CDB7DEB7CA1BDB0B0FB6F894DEBF0FBE9C
:1015B000CDBF09942A88398848885F846E847D84E9
:1015C0008C849B84AA84B984C884DF80EE80FD80EB
:1015D0000C811B81AA81B981CE0FD11D0FB6F89461
:0E15E000DEBF0FBECDBFED010895F894FFCF22
:1015EE00256C640025642025642025642025640074
:1015FE0000000000000000000000000000000000DD
:10160E0000000000000000000000000000000000CC
:10161E0000050B10161C21272D32383D43494E5420
:10162E005A5F656A70767B81878C92979DA3A8AE70
:10163E00000B16212D38434E5A65707B87929DA85C
:10164E00000B16212C38434E5A65707B86929DA84E
:10165E0000102132435465768797A805162738491E
:10166E005A6A7B8C9DAE0B1C2D3D4E5F708192A3F2
:10167E0000162D435A70879D00162C435A70869D76
:10168E0000162D435970869D00162D435970879D67
:10169E00001C3854708CA8102C4965819D05213D85
:1016AE00597692AE16324E6A87A30B27435F7B970D
:1016BE000021436587A816385A7B9D0B2D4E7092DC
:1016CE000021436587A816385A7B9D0B2C4E7092CD
:1016DE0000274E769D10385F86AE214970970B32EB
:1016EE005981A81C436A92052C547BA3163D658C28
:1016FE00002D5A87002C5A86002D5986002D5987A9
:10170E00002C5A87B32C5986002D5A86B32C5A8733
:10171E000032659716497BAE2D5F92104376A8274F
:10172E005A8C0B3D70A321548605386A9D1C4E8140
:10173E00003870A82C659D215992164E870B437B5D
:10174E00B33870A82D659D215A92164E860B437B99
:10175E00003D7B0543810B4986104E8C1654921C1E
:10176E005997215F9D2765A32C6AA83270AE3876F3
:10177E00004387165A9D2D70004387165A9D2C7074
:10178E00004386165A9D2C7000438616599D2D7067
:10179E000049922770054E972D760B549D327B1083
:1017AE005AA33881165FA83D861C65AE438C216A0C
:1017BE00004E9D388621700B59A843922C7B1665DE
:1017CE00B34E9D388621700B59A843922C7B16651B
:1017DE000054A8499D3D923287277B1C70106505E9
:1017EE005AAE4EA34397388C2D812176166A0B5F25
:00000001FF
