S01B0000417564696F546F46726571537065637472756D2E7372656373
S11300000C9409040C9426040C9426040C942604E1
S11300100C9426040C9426040C9426040C942604B4
S11300200C9426040C9426040C9426040C942604A4
S11300300C9426040C9426040C9426040C94260494
S11300400C9426040C9426040C9426040C94260484
S11300500C94260405A84CCDB2D44EB93836A90266
S11300600C50B9918688083CA6AAAA2ABE000000B2
S1130070803F0000000000000000000000000000BD
S1130080000000000000000000000000000000006C
S1130090000000050B10161C21272D32383D434962
S11300A04E545A5F656A70767B81878C92979DA3C4
S11300B0A8AE000B16212D38434E5A65707B8792EB
S11300C09DA8000B16212C38434E5A65707B8692EE
S11300D09DA800102132435465768797A8051627FA
S11300E038495A6A7B8C9DAE0B1C2D3D4E5F708146
S11300F092A300162D435A70879D00162C435A7004
S1130100869D00162D435970869D00162D43597007
S1130110879D001C3854708CA8102C4965819D055E
S1130120213D597692AE16324E6A87A30B27435F60
S11301307B970021436587A816385A7B9D0B2D4E6B
S113014070920021436587A816385A7B9D0B2C4E6C
S1130150709200274E769D10385F86AE21497097C5
S11301600B325981A81C436A92052C547BA3163D7B
S1130170658C002D5A87002C5A86002D5986002D37
S11301805987002C5A87B32C5986002D5A86B32CD4
S11301905A870032659716497BAE2D5F92104376DD
S11301A0A8275A8C0B3D70A321548605386A9D1CE0
S11301B04E81003870A82C659D215992164E870BEC
S11301C0437BB33870A82D659D215A92164E860B39
S11301D0437B003D7B0543810B4986104E8C1654AE
S11301E0921C5997215F9D2765A32C6AA83270AE93
S11301F03876004387165A9D2D70004387165A9D02
S11302002C70004386165A9D2C7000438616599D07
S11302102D700049922770054E972D760B549D3210
S11302207B105AA33881165FA83D861C65AE438CAB
S1130230216A004E9D388621700B59A843922C7B6D
S11302401665B34E9D388621700B59A843922C7BBA
S113025016650054A8499D3D923287277B1C701077
S113026065055AAE4EA34397388C2D812176166AC4
S11302700B5F0000AE005C010B02B90267031504BA
S1130280C2046F051C06C80674071F08C908730951
S11302901C0AC40A6B0B120CB70C5C0DFF0DA20EEA
S11302A0430FE30F82101F11BB115612F012871374
S11302B01E14B3144615D7156716F51682170C18B5
S11302C095181B19A019231AA31A221B9F1B191C6A
S11302D0911C071D7B1DEC1D5B1EC81E321F9A1F3F
S11302E0FF1F6220C22020217B21D4212A227D22CB
S11302F0CE221B236723AF23F52337247724B4248A
S1130300EF2426255B258C25BB25E6250F263526DF
S1130310582678269426AE26C526D926E926F72619
S1130320022709270E2710270E2709270227F72659
S1130330E926D926C526AE269426782658263526BB
S11303400F26E625BB258C255B252625EF24B42422
S113035077243724F523AF2367231B23CE227D2262
S11303602A22D4217B212021C2206220FF1F9A1F30
S1130370321FC81E5B1EEC1D7B1D071D911C191C22
S11303809F1B221BA31A231AA0191B1995180C18BA
S11303908217F5166716D7154615B3141E1487135E
S11303A0F0125612BB111F118210E30F430FA20E5D
S11303B0FF0D5C0DB70C120C6B0BC40A1C0A7309FD
S11303C0C9081F087407C8061C066F05C204150473
S11303D06703B9020B025C01AE00000052FFA4FEE9
S11303E0F5FD47FD99FCEBFB3EFB91FAE4F938F986
S11303F08CF8E1F737F78DF6E4F53CF595F4EEF378
S113040049F3A4F201F25EF1BDF01DF07EEFE1EEDE
S113041045EEAAED10ED79ECE2EB4DEBBAEA29EAF0
S113042099E90BE97EE8F4E76BE7E5E660E6DDE5EC
S11304305DE5DEE461E4E7E36FE3F9E285E214E21B
S1130440A5E138E1CEE066E001E09EDF3EDFE0DEDC
S113045085DE2CDED6DD83DD32DDE5DC99DC51DCA6
S11304600BDCC9DB89DB4CDB11DBDADAA5DA74DA05
S113047045DA1ADAF1D9CBD9A8D988D96CD952D9A5
S11304803BD927D917D909D9FED8F7D8F2D8F0D84B
S1130490F2D8F7D8FED809D917D927D93BD952D9D8
S11304A06CD988D9A8D9CBD9F1D91ADA45DA74DA52
S11304B0A5DADADA11DB4CDB89DBC9DB0BDC51DCD6
S11304C099DCE5DC32DD83DDD6DD2CDE85DEE0DEA5
S11304D03EDF9EDF01E066E0CEE038E1A5E114E214
S11304E085E2F9E26FE3E7E361E4DEE45DE5DDE59F
S11304F060E6E5E66BE7F4E77EE80BE999E929EACB
S1130500BAEA4DEBE2EB78EC10EDAAED45EEE1EE44
S11305107EEF1DF0BDF05EF101F2A4F249F3EEF3BB
S113052095F43CF5E4F58DF637F7E1F78CF838F9F6
S1130530E4F991FA3EFBEBFB99FC47FDF5FDA4FEC3
S113054052FF10270E2709270227F726E926D92666
S1130550C526AE2694267826582635260F26E62567
S1130560BB258C255B252625EF24B424772437244A
S1130570F523AF2367231B23CE227D222A22D421F5
S11305807B212021C2206220FF1F9A1F321FC81E18
S11305905B1EEC1D7B1D071D911C191C9F1B221B40
S11305A0A31A231AA0191B1995180C188217F516EB
S11305B06716D7154615B3141E148813F012561275
S11305C0BB111F118210E30F430FA20EFF0D5C0D30
S11305D0B70C120C6B0BC40A1C0A7309C9081F0858
S11305E07407C8061C066F05C20415046703B90224
S11305F00B025C01AE00000052FFA4FEF5FD47FDB6
S113060099FCEBFB3EFB91FAE4F938F98CF8E1F73D
S113061037F78DF6E4F53CF595F4EEF349F3A4F2DF
S113062001F25EF1BDF01DF07EEFE1EE45EEAAEDC4
S113063010ED79ECE2EB4DEBBAEA29EA99E90BE922
S11306407EE8F4E76BE7E5E660E6DDE55DE5DEE43C
S113065061E4E7E36FE3F9E285E214E2A5E138E15E
S1130660CEE066E001E09EDF3EDFE0DE85DE2CDEEC
S1130670D6DD83DD32DDE5DC99DC51DC0BDCC9DB66
S113068089DB4CDB11DBDADAA5DA74DA45DA1ADA5B
S1130690F1D9CBD9A8D988D96CD952D93BD927D982
S11306A017D909D9FED8F7D8F2D8F0D8F2D8F7D8A4
S11306B0FED809D917D927D93BD952D96CD988D9A9
S11306C0A8D9CBD9F1D91ADA45DA74DAA5DADADAA3
S11306D011DB4CDB89DBC9DB0BDC51DC99DCE5DCB1
S11306E032DD83DDD6DD2CDE85DEE0DE3EDF9EDF1F
S11306F001E066E0CEE038E1A5E114E285E2F9E24A
S11307006FE3E7E361E4DEE45DE5DDE560E6E5E6AD
S11307106BE7F4E77EE80BE999E929EABAEA4DEBDD
S1130720E2EB78EC10EDAAED45EEE1EE7EEF1DF084
S1130730BDF05EF101F2A4F249F3EEF395F43CF559
S1130740E4F58DF637F7E1F78CF838F9E4F991FA26
S11307503EFBEBFB99FC47FDF5FDA4FE52FF0000B8
S1130760AE005C010B02B90267031504C2046F05F5
S11307701C06C80674071F08C90873091C0AC40AA2
S11307806B0B120CB70C5C0DFF0DA20E430FE30FA5
S113079082101F11BB115612F01288131E14B314C9
S11307A04615D7156716F51682170C1895181B19D8
S11307B0A019231AA31A221B9F1B191C911C071D85
S11307C07B1DEC1D5B1EC81E321F9A1FFF1F62207B
S11307D0C22020217B21D4212A227D22CE221B2348
S11307E06723AF23F52337247724B424EF24262565
S11307F05B258C25BB25E6250F263526582678262D
S11308009426AE26C526D926E926F72602270927E7
S11308100E2711241FBECFE5D8E0DEBFCDBF10E008
S1130820A0E6B0E0EEE7FDE102C005900D92A0372E
S1130830B107D9F721E0A0E7B0E001C01D92A13FC4
S1130840B207E1F70E949C080C94BD0E0C940000C2
S1130850672B09F09FC0009711F4D8980895813050
S1130860910511F4D99808958230910511F4DA981C
S113087008958330910511F4DB980895843091052F
S113088011F4DC9808958530910511F4DD980895EC
S11308908630910511F4DE9808958730910511F49E
S11308A0DF9808958A30910511F4C09808958B302B
S11308B0910511F4C19808958C30910511F4C298F2
S11308C008958D30910511F4C39808958E309105E3
S11308D011F4C49808958F30910511F4C5980895C2
S11308E08031910511F4C69808958131910511F470
S11308F0C79808958431910511F4A8980895853115
S1130900910511F4A99808958631910511F4AA98D6
S113091008958731910511F4AB98089588319105B4
S113092011F4AC9808958931910511F4AD980895A6
S11309308A31910511F4AE9808958B31910511F423
S1130940AF9808958E31910511F4909808958F31E0
S1130950910511F4919808958032910511F49298BB
S113096008958132910511F4939808958232910586
S113097011F4949808958332910511F4959808958B
S11309808432910511F496980895859709F09FC0D3
S113099097980895009711F4D89A08958130910595
S11309A011F4D99A08958230910511F4DA9A0895D0
S11309B08330910511F4DB9A08958430910511F484
S11309C0DC9A08958530910511F4DD9A08958630F6
S11309D0910511F4DE9A08958730910511F4DF9A98
S11309E008958A30910511F4C09A08958B309105C9
S11309F011F4C19A08958C30910511F4C29A0895A6
S1130A008D30910511F4C39A08958E30910511F437
S1130A10C49A08958F30910511F4C59A08958031D0
S1130A20910511F4C69A08958131910511F4C79A7C
S1130A3008958431910511F4A89A0895853191059A
S1130A4011F4A99A08958631910511F4AA9A08958A
S1130A508731910511F4AB9A08958831910511F409
S1130A60AC9A08958931910511F4AD9A08958A31AB
S1130A70910511F4AE9A08958B31910511F4AF9A52
S1130A8008958E31910511F4909A08958F3191054E
S1130A9011F4919A08958032910511F4929A08956F
S1130AA08132910511F4939A08958232910511F4DB
S1130AB0949A08958332910511F4959A0895843295
S1130AC0910511F4969A0895859709F4979A0895D3
S1130AD0CF93C82F80FF07C061E070E082E290E00E
S1130AE00E94280406C060E070E082E290E00E9468
S1130AF02804C1FF07C061E070E083E290E00E9437
S1130B00280406C060E070E083E290E00E942804BC
S1130B10C2FF07C061E070E084E290E00E94280414
S1130B2006C060E070E084E290E00E942804C3FF05
S1130B3007C061E070E085E290E00E94280406C0EE
S1130B4060E070E085E290E00E942804CF9108956F
S1130B50CF93C82F60E070E08AE190E00E942804FF
S1130B608C2F0E94680561E070E08BE190E00E94A8
S1130B70280489EF90E00197F1F700C0000060E0DD
S1130B8070E08BE190E00E94280489EF90E00197E7
S1130B90F1F700C00000CF91089580E00E94A805FD
S1130BA081E00E94A8050895CF93C62F813059F49F
S1130BB080E8860F82958F700E94A8058C2F8F7015
S1130BC00E94A8050CC0823051F480EC860F8295F7
S1130BD08F700E94A8058C2F8F700E94A805CF915A
S1130BE0089580E00E94680587E893E10197F1F792
S1130BF000C0000083E00E94A80581EE94E0019704
S1130C00F1F700C0000083E00E94A8058DEB9AE094
S1130C100197F1F700C0000083E00E94A80582E07C
S1130C200E94A80582E00E94A80588E00E94A80509
S1130C3080E00E94A8058CE00E94A80580E00E9444
S1130C40A80586E00E94A8050895CF93C82F61E007
S1130C5070E08AE190E00E9428048C2F82958F70C6
S1130C600E94680561E070E08BE190E00E94280436
S1130C7089EF90E00197F1F700C0000060E070E0B8
S1130C808BE190E00E94280489EF90E00197F1F74E
S1130C9000C000008C2F8F700E94680561E070E036
S1130CA08BE190E00E94280489EF90E00197F1F72E
S1130CB000C0000060E070E08BE190E00E94280436
S1130CC089EF90E00197F1F700C00000CF910895FB
S1130CD0CF93DF93EC018881882331F021960E9421
S1130CE0250689918111FBCFDF91CF9108952F9231
S1130CF03F924F925F926F927F928F929F92AF92A8
S1130D00BF92CF92DF92EF92FF920F931F93CF93F4
S1130D10DF9300D000D000D0CDB7DEB780ED90E0F7
S1130D209A838983A2E7B0E0BC83AB830F2EF0EBF8
S1130D302F2EF0E03F2EF02D09811A81F801148244
S1130D4015821682178210821182128213820F2E4C
S1130D50F0E7AF2EF0E0BF2EF02D8B809C80F401E5
S1130D60F491D501CD90DD905D010D2C000CEE08C1
S1130D70FF08EF2FF0E0EE0FFF1FEE0FFF1FFE83C3
S1130D80ED83EE5BFA4FA591B491A70196010E9401
S1130D908F0BD8014D905D906D907C90460E571E40
S1130DA0681E791EF8014082518262827382ED814D
S1130DB0FE81EE58FD4FA591B49122273327A90156
S1130DC02C193D094E095F090E948F0BD801149616
S1130DD0CD90DD90ED90FC901797C60ED71EE81EBF
S1130DE0F91EF801C482D582E682F782FFEF8F1ADA
S1130DF09F0AA214B30409F0B2CFC301B20120E0E8
S1130E0032EE44E050E00E94700BD8012D933D93E4
S1130E104D935C931397C701B60120E032EE44E092
S1130E2050E00E94700BF801248335834683578376
S1130E3089819A8108969A838983AB81BC81909633
S1130E40BC83AB838055914009F076CFE8EDF0E0A8
S1130E5085E791E09A8389839C01DF014081518178
S1130E606281738177235CF4709560955095419508
S1130E705F4F6F4F7F4F4083518362837383149618
S1130E804D915D916D917C91179777236CF47095DA
S1130E906095509541955F4F6F4F7F4F14964D93DA
S1130EA05D936D937C9317974D915D916D917C91BA
S1130EB0139714968D919D910D90BC91A02D480F80
S1130EC0591F6A1F7B1FDB01CA0177231CF4039699
S1130ED0A11DB11DAC01BD01759567955795479549
S1130EE07595679557954795D9014D935D936D9386
S1130EF07D939D013896B1E0E035FB0709F0ADCF55
S1130F0026960FB6F894DEBF0FBECDBFDF91CF910A
S1130F101F910F91FF90EF90DF90CF90BF90AF9013
S1130F209F908F907F906F905F904F903F902F9005
S1130F30089580E687B983E886B908958DE790E03F
S1130F409BBD8ABD1FBC89E08EBD089510927001BF
S1130F50A0E7B0E0E1E7F1E081EF91E01D921D929E
S1130F601192119211921192E817F907B9F7E0ED75
S1130F70F0E080E591E014821582168217821082D7
S1130F801182128213823896E817F907A1F708959F
S1130F90EF92FF920F931F93CF93DF93E1E7F1E07A
S1130FA0C0EBD0E021EF31E0408151816281738157
S1130FB084819581A681B781480F591F6A1F7B1FC1
S1130FC0DB01CA0177231CF40196A11DB11DB5955F
S1130FD0A79597958795899399933896E217F30780
S1130FE019F70E94CD0560E081E00E94D405C0EBB2
S1130FF0D0E08F818F938E818F938D818F938C819D
S11310008F938B818F938A818F9389818F9388812A
S11310108F930F2EF4E6EF2EF0E0FF2EF02DFF92CB
S1131020EF9200E511E01F930F930E94D30BC801C8
S11310300E94680660E082E00E94D4058F858F9349
S11310408E858F938D858F938C858F938B858F93CE
S11310508A858F9389858F9388858F93FF92EF92EA
S11310601F930F930E94D30BC8010E94680660E08F
S113107081E00E94D40560E082E00E94D4058DB72F
S11310809EB748960FB6F8949EBF0FBE8DBFDF91F2
S1131090CF911F910F91FF90EF9008958F929F929F
S11310A0AF92BF92CF92DF92EF92FF926B017C01DD
S11310B02CE43EEC4BEA56E40E94730A0E94E00AD8
S11310C04B015C0122EC3AE24EE456E4C701B6015E
S11310D00E94730A0E94E00A6B017C0120E030E068
S11310E040EC5FE3C501B4010E94730A20E030E0E4
S11310F040E250E40E94D1084B015C01A701960133
S1131100C701B6010E94D1089B01AC01C501B4011D
S11311100E94D10820E030E040EA5CE30E943D09EF
S11311200E94AF09CB01FF90EF90DF90CF90BF906A
S1131130AF909F908F9008958FEF81BB84BB0E94E6
S113114099070E949E070E94F1050E94A60700E7E6
S113115010E0C0E0D0E0BE010D2E000C880B990B0E
S11311600E94E7092FE632E143E059E30E94730A43
S11311700E944E08F801819391938F012196C03209
S1131180D10549F70E9477060E94C807FFEE29E4BB
S113119082E0F15020408040E1F700C00000D7CF4A
S11311A05058BB27AA270E94E8080C94390A0E94C9
S11311B02B0A38F00E94320A20F039F49F3F19F4C8
S11311C026F40C94280A0EF4E095E7FB0C94220A0A
S11311D0E92F0E944A0A58F3BA1762077307840773
S11311E0950720F079F4A6F50C946C0A0EF4E095BA
S11311F00B2EBA2FA02D0B01B90190010C01CA01CD
S1131200A0011124FF27591B99F0593F50F4503E77
S113121068F11A16F040A22F232F342F4427585F69
S1131220F3CF469537952795A795F0405395C9F781
S11312307EF41F16BA0B620B730B840BBAF0915039
S1131240A1F0FF0FBB1F661F771F881FC2F70EC0D8
S1131250BA0F621F731F841F48F4879577956795AB
S1131260B795F7959E3F08F0B0CF9395880F08F097
S11312709927EE0F9795879508950E9451090C942C
S1131280390A0E94320A58F00E942B0A40F029F4CD
S11312905F3F29F00C94220A51110C946D0A0C94AE
S11312A0280A0E944A0A68F39923B1F3552391F35B
S11312B0951B550BBB27AA2762177307840738F0C1
S11312C09F5F5F4F220F331F441FAA1FA9F335D01E
S11312D00E2E3AF0E0E832D091505040E695001CD2
S11312E0CAF72BD0FE2F29D0660F771F881FBB1F8C
S11312F0261737074807AB07B0E809F0BB0B802D6A
S1131300BF01FF2793585F4F3AF09E3F510578F095
S11313100C94220A0C946D0A5F3FE4F3983ED4F3D4
S1131320869577956795B795F7959F5FC9F7880F69
S1131330911D9695879597F90895E1E0660F771FBB
S1131340881FBB1F621773078407BA0720F0621B4C
S1131350730B840BBA0BEE1F88F7E09508950E9477
S1131360B6096894B1110C946D0A08950E94520A4A
S113137088F09F5798F0B92F9927B751B0F0E1F052
S1131380660F771F881F991F1AF0BA95C9F714C002
S1131390B13091F00E946C0AB1E008950C946C0A8B
S11313A0672F782F8827B85F39F0B93FCCF386953B
S11313B077956795B395D9F73EF490958095709598
S11313C061957F4F8F4F9F4F0895E89409C097FB15
S11313D03EF490958095709561957F4F8F4F9F4F08
S11313E09923A9F0F92F96E9BB279395F69587954C
S11313F077956795B795F111F8CFFAF4BB0F11F40F
S113140060FF1BC06F5F7F4F8F4F9F4F16C08823B5
S113141011F096E911C0772321F09EE8872F762FEB
S113142005C0662371F096E8862F70E060E02AF02C
S11314309A95660F771F881FDAF7880F9695879518
S113144097F9089597F99F6780E870E060E0089540
S11314509FEF80EC089500240A94161617061806C8
S11314600906089500240A941216130614060506A4
S11314700895092E0394000C11F4882352F0BB0F35
S113148040F4BF2B11F460FF04C06F5F7F4F8F4F98
S11314909F4F089557FD9058440F551F59F05F3FD3
S11314A071F04795880F97FB991F61F09F3F79F082
S11314B087950895121613061406551FF2CF469504
S11314C0F1DF08C0161617061806991FF1CF869586
S11314D07105610508940895E894BB27662777276A
S11314E0CB0197F908950E94860A0C94390A0E9448
S11314F02B0A38F00E94320A20F0952311F00C9444
S1131500220A0C94280A11240C946D0A0E944A0A97
S113151070F3959FC1F3950F50E0551F629FF00142
S1131520729FBB27F00DB11D639FAA27F00DB11D5B
S1131530AA1F649F6627B00DA11D661F829F2227E4
S1131540B00DA11D621F739FB00DA11D621F839F6B
S1131550A00D611D221F749F3327A00D611D231F41
S1131560849F600D211D822F762F6A2F11249F578F
S113157050409AF0F1F088234AF0EE0FFF1FBB1F92
S1131580661F771F881F91505040A9F79E3F510551
S113159080F00C94220A0C946D0A5F3FE4F3983EA9
S11315A0D4F3869577956795B795F795E7959F5FFB
S11315B0C1F7FE2B880F911D9695879597F908958D
S11315C09F930E94EA0A0F9007FCEE5F0C94130BA2
S11315D00C94280A0E94520AD8F3E894E0E0BB274E
S11315E09F57F0F02AED3FE049EC06C0EE0FBB0F29
S11315F0661F771F881F28F0B23A620773078407B3
S113160028F0B25A620B730B840BE3959A9572F728
S1131610803830F49A95BB0F661F771F881FD2F766
S113162090480C94290BEF93E0FF07C0A2EA2AED3F
S11316303FE049EC5FEB0E94E8080E94390A0F90F2
S1131640039401FC9058E4E5F0E00C94350B9F3FC3
S113165031F0915020F4879577956795B795880F69
S1131660911D9695879597F908959F938F937F93EE
S11316706F93FF93EF939B01AC010E94730AEF9168
S1131680FF910E94490B2F913F914F915F910C94D0
S1131690730ADF93CF931F930F93FF92EF92DF921E
S11316A07B018C01689406C0DA2EEF010E94860A41
S11316B0FE01E894A5912591359145915591A6F3A4
S11316C0EF010E94E808FE019701A801DA9469F786
S11316D0DF90EF90FF900F911F91CF91DF910895CC
S11316E0052E97FB1EF400940E94870B57FD07D02C
S11316F00E94970B07FC03D04EF40C94870B509573
S11317004095309521953F4F4F4F5F4F08959095E9
S11317108095709561957F4F8F4F9F4F0895B7FFC8
S11317200C94B90B0E94B90B821B930B0895A1E290
S11317301A2EAA1BBB1BFD010DC0AA1FBB1FEE1F47
S1131740FF1FA217B307E407F50720F0A21BB30B92
S1131750E40BF50B661F771F881F991F1A9469F70E
S113176060957095809590959B01AC01BD01CF016A
S113177008950E94C40BA59F900DB49F900DA49F43
S1131780800D911D11240895A29FB001B39FC00143
S1131790A39F700D811D1124911DB29F700D811D99
S11317A01124911D0895AEE0B0E0E9EDFBE00C9446
S11317B0940E0D891E8986E08C831A8309838FEF2A
S11317C09FE79E838D83AE01475E5F4F6F89788D5F
S11317D0CE0101960E94F50BEF81F885E00FF11F11
S11317E010822E96E4E00C94B00EABE0B0E0EBEF88
S11317F0FBE00C94860E6C017B018A01FC011782CC
S11318001682838181FFCCC1CE0101963C01F60191
S11318109381F70193FD859193FF81917F01882343
S113182009F4BAC1853239F493FD859193FF81910E
S11318307F01853229F4B60190E00E94EC0DE7CFD8
S1131840912C212C312CFFE1F315D8F08B3279F057
S113185038F4803279F08332A1F4232D20611DC045
S11318608D3261F0803369F4232D216016C0832DFD
S11318708260382EE32DE4603E2E2AC0F32DF860FA
S11318801DC037FC2DC020ED280F2A3040F08E32C9
S1131890B9F436FC81C1232D2064322E19C036FEE2
S11318A006C08AE0989E200D1124922E11C0EAE011
S11318B02E9E200D1124222EF32DF0623F2E08C0FF
S11318C08C3621F4832D8068382E02C0883641F48A
S11318D0F70193FD859193FF81917F018111B3CF2E
S11318E0982F9F7D9554933028F40C5F1F4F9FE3EE
S11318F099830DC0833631F0833771F0833509F055
S113190059C021C0F801808189830E5F1F4F88244C
S11319108394912C530113C02801F2E04F0E511C03
S1131920F801A080B18036FE03C0692D70E002C0CA
S11319306FEF7FEFC5010E94E10D4C018201F32D91
S1131940FF773F2E16C0280122E0420E511CF801F9
S1131950A080B18036FE03C0692D70E002C06FEF35
S11319607FEFC5010E94D60D4C01F32DF0683F2E88
S1131970820133FC1BC0822D90E088169906B0F4D6
S1131980B60180E290E00E94EC0D2A94F4CFF501B8
S113199037FC859137FE81915F01B60190E00E948A
S11319A0EC0D21102A9421E0821A910881149104EB
S11319B071F7E8C0843611F0893641F5F80137FE35
S11319C007C060817181828193810C5F1F4F08C0C1
S11319D060817181072E000C880B990B0E5F1F4FDD
S11319E0F32DFF763F2E97FF09C090958095709553
S11319F061957F4F8F4F9F4FF0683F2E2AE030E074
S1131A00A3010E94280E882E861845C0853731F41C
S1131A10232D2F7EB22E2AE030E025C0932D997F0E
S1131A20B92E8F36C1F018F4883579F0B5C08037F7
S1131A3019F0883721F0B0C0E92FE061BE2EB4FE62
S1131A400DC0FB2DF460BF2E09C034FE0AC0292F3F
S1131A502660B22E06C028E030E005C020E130E068
S1131A6002C020E132E0F801B7FE07C06081718155
S1131A70828193810C5F1F4F06C06081718180E079
S1131A8090E00E5F1F4FA3010E94280E882E861837
S1131A90FB2DFF773F2E36FE0DC0232D2E7FA22E69
S1131AA0891458F434FE0BC032FC09C0832D8E7E99
S1131AB0A82E05C0B82CA32C03C0B82C01C0B92C87
S1131AC0A4FE0FC0FE01E80DF11D8081803321F4D6
S1131AD09A2D997EA92E09C0A2FE06C0B394B39490
S1131AE004C08A2D867809F0B394A3FC11C0A0FE2B
S1131AF006C0B21488F4280C922C9B180EC0B214A1
S1131B0060F4B60180E290E00E94EC0DB394F7CF4C
S1131B10B21418F42B1802C0982C212CA4FE10C067
S1131B20B60180E390E00E94EC0DA2FE17C0A1FC78
S1131B3003C088E790E002C088E590E0B6010CC0DD
S1131B408A2D867859F0A1FE02C08BE201C080E2A2
S1131B50A7FC8DE2B60190E00E94EC0D891438F4E4
S1131B60B60180E390E00E94EC0D9A94F7CF8A943A
S1131B70F301E80DF11D8081B60190E00E94EC0DA7
S1131B808110F5CF222009F442CEB60180E290E024
S1131B900E94EC0D2A94F6CFF6018681978102C04B
S1131BA08FEF9FEF2B96E2E10C94A20EFC010590BF
S1131BB0615070400110D8F7809590958E0F9F1F4B
S1131BC00895FC016150704001900110D8F7809590
S1131BD090958E0F9F1F08950F931F93CF93DF93BC
S1131BE0FB01238121FD03C08FEF9FEF2CC022FF57
S1131BF016C046815781248135814217530744F426
S1131C00A081B1819D012F5F3F4F318320838C934D
S1131C10268137812F5F3F4F3783268314C08B0182
S1131C20EC01FB010084F185E02D0995892BE1F697
S1131C30D80116968D919C911797019617969C93AF
S1131C408E931697CE01DF91CF911F910F91089536
S1131C50FA01AA27283051F1203181F1E8946F93D9
S1131C606E7F6E5F7F4F8F4F9F4FAF4FB1E03ED07F
S1131C70B4E03CD0670F781F891F9A1FA11D680F1D
S1131C80791F8A1F911DA11D6A0F711D811D911D50
S1131C90A11D20D009F468943F912AE0269F1124C5
S1131CA03019305D3193DEF6CF010895462F477029
S1131CB0405D4193B3E00FD0C9F7F6CF462F4F7084
S1131CC0405D4A3318F0495D31FD4052419302D0E2
S1131CD0A9F7EACFB4E0A695979587957795679588
S1131CE0BA95C9F700976105710508959B01AC0188
S1131CF00A2E06945795479537952795BA95C9F7AF
S1131D00620F731F841F951FA01D08952F923F9289
S1131D104F925F926F927F928F929F92AF92BF92F7
S1131D20CF92DF92EF92FF920F931F93CF93DF93A3
S1131D30CDB7DEB7CA1BDB0B0FB6F894DEBF0FBE00
S1131D40CDBF09942A88398848885F846E847D844D
S1131D508C849B84AA84B984C884DF80EE80FD804F
S1131D600C811B81AA81B981CE0FD11D0FB6F894C5
S1111D70DEBF0FBECDBFED010895F894FFCF86
S1131D7E256C6400256420256420256420256400D8
S9030000FC
