S01B0000417564696F546F46726571537065637472756D2E7372656373
S11300000C9439000C9456000C9456000C94560031
S11300100C9456000C9456000C9456000C947803DF
S11300200C9428030C9456000C9456000C9456001F
S11300300C9456000C9456000C9456000C945600E4
S11300400C9456000C9456000C9456000C945600D4
S11300500C94560005A84CCDB2D44EB93836A9023A
S11300600C50B9918688083CA6AAAA2ABE000000B2
S1130070803F11241FBECFE5D8E0DEBFCDBF10E026
S1130080A0E6B0E0E6E4F3E102C005900D92AC36E0
S1130090B107D9F722E0ACE6B0E001C01D92AB375E
S11300A0B207E1F70E94C4030C94A1090C94000068
S11300B0672B09F09FC0009711F4D89808958130F8
S11300C0910511F4D99808958230910511F4DA98C4
S11300D008958330910511F4DB98089584309105D7
S11300E011F4DC9808958530910511F4DD98089594
S11300F08630910511F4DE9808958730910511F446
S1130100DF9808958A30910511F4C09808958B30D2
S1130110910511F4C19808958C30910511F4C29899
S113012008958D30910511F4C39808958E3091058A
S113013011F4C49808958F30910511F4C598089569
S11301408031910511F4C69808958131910511F417
S1130150C79808958431910511F4A89808958531BC
S1130160910511F4A99808958631910511F4AA987E
S113017008958731910511F4AB980895883191055C
S113018011F4AC9808958931910511F4AD9808954E
S11301908A31910511F4AE9808958B31910511F4CB
S11301A0AF9808958E31910511F4909808958F3188
S11301B0910511F4919808958032910511F4929863
S11301C008958132910511F493980895823291052E
S11301D011F4949808958332910511F49598089533
S11301E08432910511F496980895859709F09FC07B
S11301F097980895009711F4D89A0895813091053D
S113020011F4D99A08958230910511F4DA9A089577
S11302108330910511F4DB9A08958430910511F42B
S1130220DC9A08958530910511F4DD9A089586309D
S1130230910511F4DE9A08958730910511F4DF9A3F
S113024008958A30910511F4C09A08958B30910570
S113025011F4C19A08958C30910511F4C29A08954D
S11302608D30910511F4C39A08958E30910511F4DF
S1130270C49A08958F30910511F4C59A0895803178
S1130280910511F4C69A08958131910511F4C79A24
S113029008958431910511F4A89A08958531910542
S11302A011F4A99A08958631910511F4AA9A089532
S11302B08731910511F4AB9A08958831910511F4B1
S11302C0AC9A08958931910511F4AD9A08958A3153
S11302D0910511F4AE9A08958B31910511F4AF9AFA
S11302E008958E31910511F4909A08958F319105F6
S11302F011F4919A08958032910511F4929A089517
S11303008132910511F4939A08958232910511F482
S1130310949A08958332910511F4959A089584323C
S1130320910511F4969A0895859709F4979A08957A
S1130330CF93C82F80FF07C061E070E08EE190E0AA
S11303400E94580006C060E070E08EE190E00E94D8
S11303505800C1FF07C061E070E08FE190E00E94A7
S1130360580006C060E070E08FE190E00E94580001
S1130370C2FF07C061E070E080E290E00E94580094
S113038006C060E070E080E290E00E945800C3FF85
S113039007C061E070E081E290E00E94580006C06E
S11303A060E070E081E290E00E945800C4FF07C062
S11303B061E070E082E290E00E94580006C060E0D4
S11303C070E082E290E00E945800C5FF07C061E03F
S11303D070E083E290E00E94580006C060E070E0A4
S11303E083E290E00E945800C6FF07C061E070E01D
S11303F084E290E00E94580006C060E070E084E26D
S113040090E00E945800CC233CF461E070E085E267
S113041090E00E94580006C060E070E085E290E041
S11304200E945800CF910895CF93C82F60E070E0E8
S11304308AE190E00E9458008C2F0E94980161E0AC
S113044070E08BE190E00E9458008FEC97E00197F8
S1130450F1F700C0000060E070E08BE190E00E94E2
S113046058008FEC97E00197F1F700C00000CF919E
S1130470089581E00E941402089560E070E08AE12A
S113048090E00E94580060E070E08BE190E00E94F0
S113049058008FE39CE90197F1F700C0000080E366
S11304A00E9414028FE097E20197F1F700C0000068
S11304B080E30E9414028FEC97E00197F1F700C0EB
S11304C0000080E30E9414028FE19EE40197F1F79B
S11304D000C0000088E30E9414028CE00E94140211
S11304E081E00E94140286E00E9414020895CF93D2
S11304F0C82F61E070E08AE190E00E9458008C2FE0
S11305000E94980161E070E08BE190E00E94580045
S11305108FEC97E00197F1F700C0000060E070E015
S11305208BE190E00E9458008FEC97E00197F1F77F
S113053000C00000CF910895CF93DF93EC01888130
S1130540882331F021960E94770289918111FBCF93
S1130550DF91CF9108952F923F924F925F926F92C5
S11305607F928F929F92AF92BF92CF92DF92EF923F
S1130570FF920F931F93CF93DF93612C712C212C47
S1130580312C21010F2EF0E5CF2EF1E0DF2EF02DDE
S11305900F2EFCE6EF2EF0E0FF2EF02D00E010E031
S11305A0C7E0D0E0B801012E000C880B990B0E9423
S11305B02E052AED3FE049EC50E40E94F90520E0C5
S11305C030E040EE50E40E94BA044B015C010E940A
S11305D0B504F6016083718382839383C501B401FA
S11305E00E946606F7016083718382839383219757
S11305F0040D151DC60CD71CE60CF71C209791F6AC
S1130600FFEF2F1A3F0A84E0680E711CE7E02E16F4
S1130610310409F0B6CF87E090E0909331018093E4
S1130620300190934F0180934E01DF91CF911F9140
S11306300F91FF90EF90DF90CF90BF90AF909F907D
S11306408F907F906F905F904F903F902F90089580
S113065078948895189580E687B983E886B90895D3
S11306608DE790E09BBD8ABD89E690E099BD88BD89
S11306701FBC89E08EBD88E189BF089510924202B3
S1130680109241020E94AB02E2E3F1E08EE491E0B9
S11306901192119211921192E817F907C9F708956E
S11306A024B130E03093400220933F020A97A9F42A
S11306B085B1022E232F000C221F330B000C221FA6
S11306C0331F90E0880F991F880F991F282B392B0F
S11306D03093400220933F0206C085B190E090938E
S11306E0400280933F0280913F029091400208951E
S11306F01F920F920FB60F9211242F933F934F9393
S11307005F936F937F938F939F93AF93BF93CF9395
S1130710DF93EF93FF93C0914102D0914202C7301F
S1130720D105FCF4CE0101969093420280934102DC
S113073088E090E00E945003CC0FDD1FCC0FDD1F3A
S1130740CE5CDE4F81559109BC01990F880B990B42
S11307500E942E05688379838A839B83369A1DBC05
S11307601CBCFF91EF91DF91CF91BF91AF919F910D
S11307708F917F916F915F914F913F912F910F9046
S11307800FBE0F901F9018958FEF81BB84BB0E9402
S11307902B030E9430030E943D020E943E03789482
S11307A085B78F7885BF85B7806885BF369A1DBCAD
S11307B01CBCC2E3D1E00F2EF0E6CF2EF0E0DF2E1A
S11307C0F02D00E312E00F2EF3E6EF2EF0E0FF2E03
S11307D0F02D809141029091420287309105E9F712
S11307E00E94390280E80E9414028F858F938E85BF
S11307F08F938D858F938C858F938B858F938A852B
S11308008F9389858F9388858F938F818F938E8122
S11308108F938D818F938C818F938B818F938A811A
S11308208F9389818F9388818F93DF92CF921F93C7
S11308300F930E94B706C8010E949C0280EC0E949C
S113084014028B8D8F938A8D8F93898D8F93888DCE
S11308508F938F898F938E898F938D898F938C89B2
S11308608F938B898F938A898F9389898F938889B2
S11308708F93FF92EF921F930F930E94B7068DB749
S11308809EB784960FB6F8949EBF0FBE8DBFC80165
S11308900E949C0210924202109241029ACF0E943E
S11308A0720538F00E94790520F039F49F3F19F45D
S11308B026F40C946F050EF4E095E7FB0C9469059F
S11308C0E92F0E94D00558F3BA176207730784070B
S11308D0950720F079F4A6F50C94F2050EF4E09552
S11308E00B2EBA2FA02D0B01B90190010C01CA01E6
S11308F0A0011124FF27591B99F0593F50F4503E91
S113090068F11A16F040A22F232F342F4427585F82
S1130910F3CF469537952795A795F0405395C9F79A
S11309207EF41F16BA0B620B730B840BBAF0915052
S1130930A1F0FF0FBB1F661F771F881FC2F70EC0F1
S1130940BA0F621F731F841F48F4879577956795C4
S1130950B795F7959E3F08F0B0CF9395880F08F0B0
S11309609927EE0F9795879508950E948205E39540
S11309700C94BC050E94CE040C94AB050E9479052E
S113098058F00E94720540F029F45F3F29F00C945E
S1130990690551110C94F3050C946F050E94D00560
S11309A068F39923B1F3552391F3951B550BBB279A
S11309B0AA2762177307840738F09F5F5F4F220FDF
S11309C0331F441FAA1FA9F335D00E2E3AF0E0E8D6
S11309D032D091505040E695001CCAF72BD0FE2F20
S11309E029D0660F771F881FBB1F261737074807B4
S11309F0AB07B0E809F0BB0B802DBF01FF2793586C
S1130A005F4F3AF09E3F510578F00C9469050C94C1
S1130A10F3055F3FE4F3983ED4F3869577956795A5
S1130A20B795F7959F5FC9F7880F911D96958795A0
S1130A3097F90895E1E0660F771F881FBB1F6217BF
S1130A4073078407BA0720F0621B730B840BBA0B7D
S1130A50EE1F88F7E0950895E89409C097FB3EF4EB
S1130A6090958095709561957F4F8F4F9F4F9923F7
S1130A70A9F0F92F96E9BB279395F6958795779575
S1130A806795B795F111F8CFFAF4BB0F11F460FF35
S1130A901BC06F5F7F4F8F4F9F4F16C0882311F08D
S1130AA096E911C0772321F09EE8872F762F05C0A1
S1130AB0662371F096E8862F70E060E02AF09A953C
S1130AC0660F771F881FDAF7880F9695879597F931
S1130AD0089597F99F6780E870E060E008959FEFBC
S1130AE080EC089500240A941616170618060906C1
S1130AF0089500240A941216130614060506089590
S1130B000C946F050E94D805D8F3E894E0E0BB2765
S1130B109F57F0F02AED3FE049EC06C0EE0FBB0F03
S1130B20661F771F881F28F0B23A6207730784078D
S1130B3028F0B25A620B730B840BE3959A9572F703
S1130B40803830F49A95BB0F661F771F881FD2F741
S1130B5090480C947006092E0394000C11F4882319
S1130B6052F0BB0F40F4BF2B11F460FF04C06F5F61
S1130B707F4F8F4F9F4F0895EF93E0FF07C0A2EA86
S1130B802AED3FE049EC5FEB0E9460040E94AB0554
S1130B900F90039401FC9058E4E5F0E00C94A30654
S1130BA057FD9058440F551F59F05F3F71F047951A
S1130BB0880F97FB991F61F09F3F79F087950895FF
S1130BC0121613061406551FF2CF4695F1DF08C01E
S1130BD0161617061806991FF1CF8695710561053B
S1130BE008940895E894BB2766277727CB0197F9E3
S1130BF008950E940C060C94AB050E94720538F00F
S1130C000E94790520F0952311F00C9469050C9449
S1130C106F0511240C94F3050E94D00570F3959F81
S1130C20C1F3950F50E0551F629FF001729FBB27DF
S1130C30F00DB11D639FAA27F00DB11DAA1F649F7B
S1130C406627B00DA11D661F829F2227B00DA11D2E
S1130C50621F739FB00DA11D621F839FA00D611DB4
S1130C60221F749F3327A00D611D231F849F600DD5
S1130C70211D822F762F6A2F11249F5750409AF0FE
S1130C80F1F088234AF0EE0FFF1FBB1F661F771F8A
S1130C90881F91505040A9F79E3F510580F00C9455
S1130CA069050C94F3055F3FE4F3983ED4F386950D
S1130CB077956795B795F795E7959F5FC1F7FE2BF5
S1130CC0880F911D9695879597F908959F930E9493
S1130CD082050F9007FCEE5F0C94BC059F3F31F03A
S1130CE0915020F4879577956795B795880F911D56
S1130CF09695879597F90895DF93CF931F930F9354
S1130D00FF92EF92DF927B018C01689406C0DA2E89
S1130D10EF010E940C06FE01E894A59125913591FE
S1130D2045915591A6F3EF010E946004FE019701DD
S1130D30A801DA9469F7DF90EF90FF900F911F916B
S1130D40CF91DF9108959F938F937F936F93FF9338
S1130D50EF939B01AC010E94F905EF91FF910E9472
S1130D607C062F913F914F915F910C94F905AEE071
S1130D70B0E0EDEBF6E00C9478090D891E8986E06D
S1130D808C831A8309838FEF9FE79E838D83AE0143
S1130D90475E5F4F6F89788DCE0101960E94D90618
S1130DA0EF81F885E00FF11F10822E96E4E00C9499
S1130DB09409ABE0B0E0EFEDF6E00C946A096C0145
S1130DC07B018A01FC0117821682838181FFCCC1D9
S1130DD0CE0101963C01F6019381F70193FD8591C3
S1130DE093FF81917F01882309F4BAC1853239F4D4
S1130DF093FD859193FF81917F01853229F4B6019A
S1130E0090E00E94D008E7CF912C212C312CFFE1F7
S1130E10F315D8F08B3279F038F4803279F08332DC
S1130E20A1F4232D20611DC08D3261F0803369F45B
S1130E30232D216016C0832D8260382EE32DE460BB
S1130E403E2E2AC0F32DF8601DC037FC2DC020EDC6
S1130E50280F2A3040F08E32B9F436FC81C1232D9C
S1130E602064322E19C036FE06C08AE0989E200DFA
S1130E701124922E11C0EAE02E9E200D1124222E60
S1130E80F32DF0623F2E08C08C3621F4832D806848
S1130E90382E02C0883641F4F70193FD859193FF03
S1130EA081917F018111B3CF982F9F7D9554933009
S1130EB028F40C5F1F4F9FE399830DC0833631F0F4
S1130EC0833771F0833509F059C021C0F80180815E
S1130ED089830E5F1F4F88248394912C530113C080
S1130EE02801F2E04F0E511CF801A080B18036FEBB
S1130EF003C0692D70E002C06FEF7FEFC5010E944F
S1130F00C5084C018201F32DFF773F2E16C028013E
S1130F1022E0420E511CF801A080B18036FE03C0CD
S1130F20692D70E002C06FEF7FEFC5010E94BA081F
S1130F304C01F32DF0683F2E820133FC1BC0822D3F
S1130F4090E088169906B0F4B60180E290E00E9421
S1130F50D0082A94F4CFF50137FC859137FE8191AE
S1130F605F01B60190E00E94D00821102A9421E08C
S1130F70821A91088114910471F7E8C0843611F043
S1130F80893641F5F80137FE07C06081718182819D
S1130F9093810C5F1F4F08C060817181072E000C84
S1130FA0880B990B0E5F1F4FF32DFF763F2E97FF93
S1130FB009C090958095709561957F4F8F4F9F4F95
S1130FC0F0683F2E2AE030E0A3010E940C09882E2D
S1130FD0861845C0853731F4232D2F7EB22E2AE0A2
S1130FE030E025C0932D997FB92E8F36C1F018F4C7
S1130FF0883579F0B5C0803719F0883721F0B0C052
S1131000E92FE061BE2EB4FE0DC0FB2DF460BF2EAF
S113101009C034FE0AC0292F2660B22E06C028E07B
S113102030E005C020E130E002C020E132E0F80108
S1131030B7FE07C060817181828193810C5F1F4F6D
S113104006C06081718180E090E00E5F1F4FA301B4
S11310500E940C09882E8618FB2DFF773F2E36FE42
S11310600DC0232D2E7FA22E891458F434FE0BC0FC
S113107032FC09C0832D8E7EA82E05C0B82CA32C6B
S113108003C0B82C01C0B92CA4FE0FC0FE01E80DAA
S1131090F11D8081803321F49A2D997EA92E09C0F7
S11310A0A2FE06C0B394B39404C08A2D867809F0D6
S11310B0B394A3FC11C0A0FE06C0B21488F4280C9B
S11310C0922C9B180EC0B21460F4B60180E290E03A
S11310D00E94D008B394F7CFB21418F42B1802C0AE
S11310E0982C212CA4FE10C0B60180E390E00E944D
S11310F0D008A2FE17C0A1FC03C088E790E002C09C
S113110088E590E0B6010CC08A2D867859F0A1FEDE
S113111002C08BE201C080E2A7FC8DE2B60190E040
S11311200E94D008891438F4B60180E390E00E944C
S1131130D0089A94F7CF8A94F301E80DF11D8081C9
S1131140B60190E00E94D0088110F5CF222009F466
S113115042CEB60180E290E00E94D0082A94F6CFF5
S1131160F6018681978102C08FEF9FEF2B96E2E113
S11311700C948609FC010590615070400110D8F769
S1131180809590958E0F9F1F0895FC0161507040CB
S113119001900110D8F7809590958E0F9F1F0895A8
S11311A00F931F93CF93DF93FB01238121FD03C092
S11311B08FEF9FEF2CC022FF16C0468157812481F8
S11311C035814217530744F4A081B1819D012F5FFB
S11311D03F4F318320838C93268137812F5F3F4F8C
S11311E03783268314C08B01EC01FB010084F18555
S11311F0E02D0995892BE1F6D80116968D919C91E5
S11312001797019617969C938E931697CE01DF91AC
S1131210CF911F910F910895FA01AA27283051F117
S1131220203181F1E8946F936E7F6E5F7F4F8F4F13
S11312309F4FAF4FB1E03ED0B4E03CD0670F781F72
S1131240891F9A1FA11D680F791F8A1F911DA11D57
S11312506A0F711D811D911DA11D20D009F4689490
S11312603F912AE0269F11243019305D3193DEF638
S1131270CF010895462F4770405D4193B3E00FD0EE
S1131280C9F7F6CF462F4F70405D4A3318F0495DD9
S113129031FD4052419302D0A9F7EACFB4E0A695BC
S11312A09795879577956795BA95C9F700976105DE
S11312B0710508959B01AC010A2E06945795479534
S11312C037952795BA95C9F7620F731F841F951F29
S11312D0A01D08952F923F924F925F926F927F923A
S11312E08F929F92AF92BF92CF92DF92EF92FF9232
S11312F00F931F93CF93DF93CDB7DEB7CA1BDB0BDE
S11313000FB6F894DEBF0FBECDBF09942A88398882
S113131048885F846E847D848C849B84AA84B98489
S1131320C884DF80EE80FD800C811B81AA81B98195
S1131330CE0FD11D0FB6F894DEBF0FBECDBFED01A9
S10913400895F894FFCFAC
S10F134625642025642025642025640013
S9030000FC
