S01B0000417564696F546F46726571537065637472756D2E7372656373
S11300000C942A000C9447000C9447000C9447006D
S11300100C9447000C9447000C9447000C94E8029D
S11300200C949C020C9447000C9447000C944700D9
S11300300C9447000C9447000C9447000C94470020
S11300400C9447000C9447000C9447000C94470010
S11300500C94470011241FBECFE5D8E0DEBFCDBF0E
S113006010E0A0E6B0E0E6E0FDE002C005900D92ED
S1130070AC36B107D9F720E0ACE6B0E001C01D9280
S1130080AD38B207E1F70E942A030C9481060C9460
S11300900000672B09F09FC0009711F4D8980895C9
S11300A08130910511F4D99808958230910511F4A5
S11300B0DA9808958330910511F4DB98089584301B
S11300C0910511F4DC9808958530910511F4DD98BB
S11300D008958630910511F4DE98089587309105CE
S11300E011F4DF9808958A30910511F4C0980895A9
S11300F08B30910511F4C19808958C30910511F459
S1130100C29808958D30910511F4C39808958E30E6
S1130110910511F4C49808958F30910511F4C59890
S113012008958031910511F4C6980895813191059F
S113013011F4C79808958431910511F4A89808958D
S11301408531910511F4A99808958631910511F42A
S1130150AA9808958731910511F4AB9808958831D0
S1130160910511F4AC9808958931910511F4AD9875
S113017008958A31910511F4AE9808958B31910553
S113018011F4AF9808958E31910511F49098089563
S11301908F31910511F4919808958032910511F4ED
S11301A0929808958132910511F4939808958232BA
S11301B0910511F4949808958332910511F495985A
S11301C008958432910511F496980895859709F05D
S11301D09FC097980895009711F4D89A0895813094
S11301E0910511F4D99A08958230910511F4DA9A9F
S11301F008958330910511F4DB9A089584309105B4
S113020011F4DC9A08958530910511F4DD9A08956E
S11302108630910511F4DE9A08958730910511F422
S1130220DF9A08958A30910511F4C09A08958B30AD
S1130230910511F4C19A08958C30910511F4C29A74
S113024008958D30910511F4C39A08958E30910567
S113025011F4C49A08958F30910511F4C59A089544
S11302608031910511F4C69A08958131910511F4F4
S1130270C79A08958431910511F4A89A0895853197
S1130280910511F4A99A08958631910511F4AA9A59
S113029008958731910511F4AB9A08958831910539
S11302A011F4AC9A08958931910511F4AD9A089529
S11302B08A31910511F4AE9A08958B31910511F4A8
S11302C0AF9A08958E31910511F4909A08958F3163
S11302D0910511F4919A08958032910511F4929A3E
S11302E008958132910511F4939A0895823291050B
S11302F011F4949A08958332910511F4959A08950E
S11303008432910511F4969A0895859709F4979A81
S11303100895CF93C82F80FF07C061E070E08EE19D
S113032090E00E94490006C060E070E08EE190E039
S11303300E944900C1FF07C061E070E08FE190E0D6
S11303400E94490006C060E070E08FE190E00E94E6
S11303504900C2FF07C061E070E080E290E00E94C3
S1130360490006C060E070E080E290E00E9449002D
S1130370C3FF07C061E070E081E290E00E944900A1
S113038006C060E070E081E290E00E944900C4FF92
S113039007C061E070E082E290E00E94490006C07C
S11303A060E070E082E290E00E944900C5FF07C06F
S11303B061E070E083E290E00E94490006C060E0E2
S11303C070E083E290E00E944900C6FF07C061E04C
S11303D070E084E290E00E94490006C060E070E0B2
S11303E084E290E00E944900CC233CF461E070E098
S11303F085E290E00E94490006C060E070E085E27A
S113040090E00E944900CF910895CF93C82F60E0F7
S113041070E08AE190E00E9449008C2F0E948901DB
S113042061E070E08BE190E00E94490089EF90E088
S11304300197F1F700C0000060E070E08BE190E00C
S11304400E94490089EF90E00197F1F700C0000095
S1130450CF91089581E00E940502089560E070E064
S11304608AE190E00E94490060E070E08BE190E056
S11304700E94490087E893E10197F1F700C000006A
S113048080E30E94050281EE94E00197F1F700C039
S1130490000080E30E94050289EF90E00197F1F7E4
S11304A000C0000080E30E94050283EC99E00197FC
S11304B0F1F700C0000088E30E9405028CE00E946E
S11304C0050281E00E94050286E00E94050208956B
S11304D0CF93C82F61E070E08AE190E00E94490068
S11304E08C2F0E94890161E070E08BE190E00E9412
S11304F0490089EF90E00197F1F700C0000060E047
S113050070E08BE190E00E94490089EF90E0019750
S1130510F1F700C00000CF910895CF93DF93EC0171
S11305208881882331F021960E9468028991811183
S1130530FBCFDF91CF91089578948895189580E644
S113054087B983E886B908958DE790E09BBD8ABD9D
S113055089E690E099BD88BD1FBC89E08EBD88E125
S113056089BF089510928C0010928B00ECE6F0E0A5
S11305708AE790E011921192E817F907D9F70895E4
S113058024B130E030938A00209389000A97A9F4BB
S113059085B1022E232F000C221F330B000C221FC7
S11305A0331F90E0880F991F880F991F282B392B30
S11305B030938A002093890006C085B190E090931F
S11305C08A00809389008091890090918A0008951F
S11305D01F920F920FB60F9211242F933F934F93B4
S11305E05F936F937F938F939F93AF93BF93CF93B7
S11305F0DF93EF93FF93C0918B00D0918C00C730B1
S1130600D105ACF4CE01019690938C0080938B00BD
S113061088E090E00E94C002CC0FDD1FC459DF4F78
S11306208155910999838883369A1DBC1CBCFF911E
S1130630EF91DF91CF91BF91AF919F918F917F9176
S11306406F915F914F913F912F910F900FBE0F903B
S11306501F9018958FEF81BB84BB0E949F020E945C
S1130660A4020E942E020E94B202789485B78F7869
S113067085BF85B7806885BF369ACCE6D0E00F2E5B
S1130680F0E6CF2EF0E0DF2EF02D0AE710E00F2E7B
S1130690F3E6EF2EF0E0FF2EF02D80918B00909189
S11306A08C0087309105E9F70E942A0280E80E94B5
S11306B005028F818F938E818F938D818F938C818F
S11306C08F938B818F938A818F9389818F93888174
S11306D08F93DF92CF921F930F930E949703C801C9
S11306E00E948D0280EC0E9405028D858F938C857B
S11306F08F938B858F938A858F9389858F93888534
S11307008F93FF92EF921F930F930E949703C80158
S11307100E948D0210928C0010928B008DB79EB7B0
S113072046960FB6F8949EBF0FBE8DBFB6CFAEE00F
S1130730B0E0EDE9F3E00C9458060D891E8986E0DB
S11307408C831A8309838FEF9FE79E838D83AE0189
S1130750475E5F4F6F89788DCE0101960E94B90381
S1130760EF81F885E00FF11F10822E96E4E00C94DF
S11307707406ABE0B0E0EFEBF3E00C944A066C01D6
S11307807B018A01FC0117821682838181FFCCC11F
S1130790CE0101963C01F6019381F70193FD859109
S11307A093FF81917F01882309F4BAC1853239F41A
S11307B093FD859193FF81917F01853229F4B601E0
S11307C090E00E94B005E7CF912C212C312CFFE161
S11307D0F315D8F08B3279F038F4803279F0833223
S11307E0A1F4232D20611DC08D3261F0803369F4A2
S11307F0232D216016C0832D8260382EE32DE46002
S11308003E2E2AC0F32DF8601DC037FC2DC020ED0C
S1130810280F2A3040F08E32B9F436FC81C1232DE2
S11308202064322E19C036FE06C08AE0989E200D40
S11308301124922E11C0EAE02E9E200D1124222EA6
S1130840F32DF0623F2E08C08C3621F4832D80688E
S1130850382E02C0883641F4F70193FD859193FF49
S113086081917F018111B3CF982F9F7D955493304F
S113087028F40C5F1F4F9FE399830DC0833631F03A
S1130880833771F0833509F059C021C0F8018081A4
S113089089830E5F1F4F88248394912C530113C0C6
S11308A02801F2E04F0E511CF801A080B18036FE01
S11308B003C0692D70E002C06FEF7FEFC5010E9495
S11308C0A5054C018201F32DFF773F2E16C02801A8
S11308D022E0420E511CF801A080B18036FE03C014
S11308E0692D70E002C06FEF7FEFC5010E949A0589
S11308F04C01F32DF0683F2E820133FC1BC0822D86
S113090090E088169906B0F4B60180E290E00E9467
S1130910B0052A94F4CFF50137FC859137FE819117
S11309205F01B60190E00E94B00521102A9421E0F5
S1130930821A91088114910471F7E8C0843611F089
S1130940893641F5F80137FE07C0608171818281E3
S113095093810C5F1F4F08C060817181072E000CCA
S1130960880B990B0E5F1F4FF32DFF763F2E97FFD9
S113097009C090958095709561957F4F8F4F9F4FDB
S1130980F0683F2E2AE030E0A3010E94EC05882E97
S1130990861845C0853731F4232D2F7EB22E2AE0E8
S11309A030E025C0932D997FB92E8F36C1F018F40D
S11309B0883579F0B5C0803719F0883721F0B0C098
S11309C0E92FE061BE2EB4FE0DC0FB2DF460BF2EF6
S11309D009C034FE0AC0292F2660B22E06C028E0C2
S11309E030E005C020E130E002C020E132E0F8014F
S11309F0B7FE07C060817181828193810C5F1F4FB4
S1130A0006C06081718180E090E00E5F1F4FA301FA
S1130A100E94EC05882E8618FB2DFF773F2E36FEAC
S1130A200DC0232D2E7FA22E891458F434FE0BC042
S1130A3032FC09C0832D8E7EA82E05C0B82CA32CB1
S1130A4003C0B82C01C0B92CA4FE0FC0FE01E80DF0
S1130A50F11D8081803321F49A2D997EA92E09C03D
S1130A60A2FE06C0B394B39404C08A2D867809F01C
S1130A70B394A3FC11C0A0FE06C0B21488F4280CE1
S1130A80922C9B180EC0B21460F4B60180E290E080
S1130A900E94B005B394F7CFB21418F42B1802C017
S1130AA0982C212CA4FE10C0B60180E390E00E9493
S1130AB0B005A2FE17C0A1FC03C088E790E002C005
S1130AC088E590E0B6010CC08A2D867859F0A1FE25
S1130AD002C08BE201C080E2A7FC8DE2B60190E087
S1130AE00E94B005891438F4B60180E390E00E94B6
S1130AF0B0059A94F7CF8A94F301E80DF11D808133
S1130B00B60190E00E94B0058110F5CF222009F4CF
S1130B1042CEB60180E290E00E94B0052A94F6CF5E
S1130B20F6018681978102C08FEF9FEF2B96E2E159
S1130B300C946606FC010590615070400110D8F7D2
S1130B40809590958E0F9F1F0895FC016150704011
S1130B5001900110D8F7809590958E0F9F1F0895EE
S1130B600F931F93CF93DF93FB01238121FD03C0D8
S1130B708FEF9FEF2CC022FF16C04681578124813E
S1130B8035814217530744F4A081B1819D012F5F41
S1130B903F4F318320838C93268137812F5F3F4FD2
S1130BA03783268314C08B01EC01FB010084F1859B
S1130BB0E02D0995892BE1F6D80116968D919C912B
S1130BC01797019617969C938E931697CE01DF91F3
S1130BD0CF911F910F910895FA01AA27283051F15E
S1130BE0203181F1E8946F936E7F6E5F7F4F8F4F5A
S1130BF09F4FAF4FB1E03ED0B4E03CD0670F781FB9
S1130C00891F9A1FA11D680F791F8A1F911DA11D9D
S1130C106A0F711D811D911DA11D20D009F46894D6
S1130C203F912AE0269F11243019305D3193DEF67E
S1130C30CF010895462F4770405D4193B3E00FD034
S1130C40C9F7F6CF462F4F70405D4A3318F0495D1F
S1130C5031FD4052419302D0A9F7EACFB4E0A69502
S1130C609795879577956795BA95C9F70097610524
S1130C70710508959B01AC010A2E0694579547957A
S1130C8037952795BA95C9F7620F731F841F951F6F
S1130C90A01D08952F923F924F925F926F927F9280
S1130CA08F929F92AF92BF92CF92DF92EF92FF9278
S1130CB00F931F93CF93DF93CDB7DEB7CA1BDB0B24
S1130CC00FB6F894DEBF0FBECDBF09942A883988C9
S1130CD048885F846E847D848C849B84AA84B984D0
S1130CE0C884DF80EE80FD800C811B81AA81B981DC
S1130CF0CE0FD11D0FB6F894DEBF0FBECDBFED01F0
S1090D000895F894FFCFF2
S10F0D0625642025642025642025640059
S9030000FC
