S0130000436C6F636B436F6E6669672E73726563CF
S11300000C942A000C9434000C9434000C943400A6
S11300100C9434000C9434000C9434000C9434008C
S11300200C9434000C9434000C9434000C9434007C
S11300300C9434000C9434000C9434000C9434006C
S11300400C9434000C9434000C9434000C9434005C
S11300500C94340011241FBECFE5D8E0DEBFCDBF21
S11300600E9436000C9440000C9400008FEF8ABB71
S113007091E08BB389278BBB8EED8A95F1F7F9CF8D
S1070080F894FFCF1E
S9030000FC
