S00D00004C434420382E73726563EC
S11300000C946B000C9475000C9475000C947500A2
S11300100C9475000C9475000C9475000C94750088
S11300200C9475000C9475000C9475000C94750078
S11300300C9475000C9475000C9475000C94750068
S11300400C9475000C9475000C9475000C94750058
S11300500C94750007634236B79BD8A71A396856C3
S113006018AEBAAB558C1D3CB7CC5763BD6DEDFDD6
S1130070753EF6177231BF000000803F0800000093
S1130080BE922449123EABAAAA2ABECDCCCC4C3E89
S113009000000080BEABAAAAAA3E00000000BF0078
S11300A00000803F0000000000084178D3BB438774
S11300B0D1133D190E3CC3BD4282AD2B3E68EC8288
S11300C076BED98FE1A93E4C80EFFFBE01C4FF7F0D
S11300D03F000000000011241FBECFE5D8E0DEBFC2
S11300E0CDBF0E948C030C94B0070C940000672BC6
S11300F009F09FC0009711F4D898089581309105B4
S113010011F4D99808958230910511F4DA9808957C
S11301108330910511F4DB9808958430910511F42E
S1130120DC9808958530910511F4DD9808958630A2
S1130130910511F4DE9808958730910511F4DF9844
S113014008958A30910511F4C09808958B30910573
S113015011F4C19808958C30910511F4C298089552
S11301608D30910511F4C39808958E30910511F4E2
S1130170C49808958F30910511F4C598089580317D
S1130180910511F4C69808958131910511F4C79829
S113019008958431910511F4A89808958531910545
S11301A011F4A99808958631910511F4AA98089537
S11301B08731910511F4AB9808958831910511F4B4
S11301C0AC9808958931910511F4AD9808958A3158
S11301D0910511F4AE9808958B31910511F4AF98FF
S11301E008958E31910511F4909808958F319105F9
S11301F011F4919808958032910511F4929808951C
S11302008132910511F4939808958232910511F485
S1130210949808958332910511F495980895843241
S1130220910511F496980895859709F09FC09798C1
S11302300895009711F4D89A08958130910511F426
S1130240D99A08958230910511F4DA9A0895833089
S1130250910511F4DB9A08958430910511F4DC9A28
S113026008958530910511F4DD9A0895863091053D
S113027011F4DE9A08958730910511F4DF9A0895F8
S11302808A30910511F4C09A08958B30910511F4C8
S1130290C19A08958C30910511F4C29A08958D3055
S11302A0910511F4C39A08958E30910511F4C49AFE
S11302B008958F30910511F4C59A08958031910500
S11302C011F4C69A08958131910511F4C79A0895DD
S11302D08431910511F4A89A08958531910511F49A
S11302E0A99A08958631910511F4AA9A089587313F
S11302F0910511F4AB9A08958831910511F4AC9AE3
S113030008958931910511F4AD9A08958A319105C2
S113031011F4AE9A08958B31910511F4AF9A0895B2
S11303208E31910511F4909A08958F31910511F44D
S1130330919A08958032910511F4929A0895813228
S1130340910511F4939A08958232910511F4949AC7
S113035008958332910511F4959A08958432910594
S113036011F4969A0895859709F4979A0895CF936E
S1130370C82F80FF07C061E070E08EE190E00E942A
S1130380770006C060E070E08EE190E00E947700A4
S1130390C1FF07C061E070E08FE190E00E94770048
S11303A006C060E070E08FE190E00E947700C2FF39
S11303B007C061E070E080E290E00E94770006C030
S11303C060E070E080E290E00E947700C3FF07C025
S11303D061E070E081E290E00E94770006C060E096
S11303E070E081E290E00E947700C4FF07C061E002
S11303F070E082E290E00E94770006C060E070E066
S113040082E290E00E947700C5FF07C061E070E0DF
S113041083E290E00E94770006C060E070E083E22F
S113042090E00E947700C6FF07C061E070E084E2BC
S113043090E00E94770006C060E070E084E290E003
S11304400E947700CC233CF461E070E085E290E008
S11304500E94770006C060E070E085E290E00E94B0
S11304607700CF910895CF93C82F60E070E08AE1C0
S113047090E00E9477008C2F0E94B70161E070E049
S11304808BE190E00E94770089EF90E00197F1F70B
S113049000C0000060E070E08BE190E00E94770013
S11304A089EF90E00197F1F700C00000CF91089523
S11304B081E00E943302089560E070E08AE190E0F8
S11304C00E94770060E070E08BE190E00E9477008A
S11304D087E893E10197F1F700C0000080E30E94F0
S11304E0330281EE94E00197F1F700C0000080E34D
S11304F00E94330289EF90E00197F1F700C00000F9
S113050080E30E94330283EC99E00197F1F700C085
S1130510000088E30E9433028CE00E94330281E0F1
S11305200E94330286E00E9433020895CF93C82FBD
S113053061E070E08AE190E00E9477008C2F0E94D5
S1130540B70161E070E08BE190E00E94770089EFF1
S113055090E00197F1F700C0000060E070E08BE1EB
S113056090E00E94770089EF90E00197F1F700C0D6
S11305700000CF910895CF93DF93EC018881882305
S113058031F021960E94960289918111FBCFDF916F
S1130590CF9108959B01215031091216130684F45A
S11305A0FC01E60FF71FDC0180E090E04C915291D2
S11305B05D93408301962150310982179307B4F368
S11305C00895CF92DF92EF92FF920F931F93CF93F0
S11305D0DF936B018A01009799F0EB01E0E0F0E012
S11305E00F2EFAE0EF2EF12CF02D3196B7010E9478
S11305F08807805D8993862F972F0097B1F702C0F3
S1130600E0E0F0E0E017F1075CF4EC0DFD1D96016D
S1130610200F311F80E38193E217F307E1F701C054
S11306208F01B801C6010E94CA02E601C00FD11FA2
S11306301882C801DF91CF911F910F91FF90EF9025
S1130640DF90CF9008952F923F924F925F926F92D6
S11306507F928F929F92AF92BF92CF92DF92EF924E
S1130660FF920F931F93CF93DF934B015C018A0199
S1130670E9010E94D2046B017C0140E050E0B80122
S1130680C6010E94E1021C01209799F1F801E80FCC
S1130690F91F8EE28083BE010D2E000C880B990B8E
S11306A00E940A059B01AC0160E070E080E291E4E5
S11306B00E9403062B013C01B601DD0C880B990B4B
S11306C00E940A059B01AC01C501B4010E94F30319
S11306D02FEF221A320A020D131DA30192010E9468
S11306E096050E94D204DC01CB01AE01B8010E9440
S11306F0E102DF91CF911F910F91FF90EF90DF9076
S1130700CF90BF90AF909F908F907F906F905F90AD
S11307104F903F902F900895CF93DF93CDB7DEB7DE
S11307202A970FB6F894DEBF0FBECDBF8FEF81BB03
S113073084BB87BB80E687B981E886B918BA0E9472
S11307405C020E9458028E010F5F1F4F0F2EF0E2D1
S1130750EF2EF6E5FF2EF02D369A3699FECF64B1D2
S113076085B170E0062E672F000C661F770B000C16
S1130770661F771F90E0880F991F880F991F682BB9
S1130780792B072E000C880B990B0E940A0520E098
S113079030E040EA50E40E9496054B015C0181E898
S11307A00E94330220E030EC4FE754E4C501B40169
S11307B00E94600423E030E0A8010E942303F801B2
S11307C001900020E9F73197F182E08212820E94C1
S11307D05802C8010E94BB0287EA91E60197F1F72B
S11307E000C00000B9CF5058BB27AA270E940B04B1
S11307F00C945C050E944E0538F00E94550520F0CB
S113080039F49F3F19F426F40C944B050EF4E0954B
S1130810E7FB0C944505E92F0E946D0558F3BA17C0
S1130820620773078407950720F079F4A6F50C9402
S11308308F050EF4E0950B2EBA2FA02D0B01B901F4
S113084090010C01CA01A0011124FF27591B99F042
S1130850593F50F4503E68F11A16F040A22F232F4E
S1130860342F4427585FF3CF469537952795A7959E
S1130870F0405395C9F77EF41F16BA0B620B730B45
S1130880840BBAF09150A1F0FF0FBB1F661F771FB6
S1130890881FC2F70EC0BA0F621F731F841F48F46B
S11308A0879577956795B795F7959E3F08F0B0CFF4
S11308B09395880F08F09927EE0F979587950895DB
S11308C00E9474040C945C050E94550558F00E9423
S11308D04E0540F029F45F3F29F00C944505511171
S11308E00C9490050C944B050E946D0568F39923B4
S11308F0B1F3552391F3951B550BBB27AA27621718
S11309007307840738F09F5F5F4F220F331F441F24
S1130910AA1FA9F335D00E2E3AF0E0E832D0915058
S11309205040E695001CCAF72BD0FE2F29D0660F45
S1130930771F881FBB1F261737074807AB07B0E888
S113094009F0BB0B802DBF01FF2793585F4F3AF08E
S11309509E3F510578F00C9445050C9490055F3F3B
S1130960E4F3983ED4F3869577956795B795F79514
S11309709F5FC9F7880F911D9695879597F90895FC
S1130980E1E0660F771F881FBB1F62177307840798
S1130990BA0720F0621B730B840BBA0BEE1F88F7A7
S11309A0E09508950E94D9046894B1110C949005BF
S11309B008950E94750588F09F5798F0B92F9927DC
S11309C0B751B0F0E1F0660F771F881F991F1AF036
S11309D0BA95C9F714C0B13091F00E948F05B1E007
S11309E008950C948F05672F782F8827B85F39F006
S11309F0B93FCCF3869577956795B395D9F73EF4CF
S1130A0090958095709561957F4F8F4F9F4F089576
S1130A10E89409C097FB3EF4909580957095619594
S1130A207F4F8F4F9F4F9923A9F0F92F96E9BB274A
S1130A309395F695879577956795B795F111F8CFC6
S1130A40FAF4BB0F11F460FF1BC06F5F7F4F8F4F31
S1130A509F4F16C0882311F096E911C0772321F027
S1130A609EE8872F762F05C0662371F096E8862FBF
S1130A7070E060E02AF09A95660F771F881FDAF716
S1130A80880F9695879597F9089597F99F6780E859
S1130A9070E060E008959FEF80EC089500240A94CC
S1130AA01616170618060906089500240A94121645
S1130AB01306140605060895092E0394000C11F478
S1130AC0882352F0BB0F40F4BF2B11F460FF04C025
S1130AD06F5F7F4F8F4F9F4F089557FD9058440F7E
S1130AE0551F59F05F3F71F04795880F97FB991F89
S1130AF061F09F3F79F08795089512161306140646
S1130B00551FF2CF4695F1DF08C0161617061806D2
S1130B10991FF1CF86957105610508940895E894AD
S1130B20BB2766277727CB0197F908950E94A9056B
S1130B300C945C050E944E0538F00E94550520F087
S1130B40952311F00C9445050C944B0511240C9439
S1130B5090050E946D0570F3959FC1F3950F50E0C9
S1130B60551F629FF001729FBB27F00DB11D639F5B
S1130B70AA27F00DB11DAA1F649F6627B00DA11D01
S1130B80661F829F2227B00DA11D621F739FB00DA7
S1130B90A11D621F839FA00D611D221F749F332717
S1130BA0A00D611D231F849F600D211D822F762FB0
S1130BB06A2F11249F5750409AF0F1F088234AF08D
S1130BC0EE0FFF1FBB1F661F771F881F91505040F9
S1130BD0A9F79E3F510580F00C9445050C949005AF
S1130BE05F3FE4F3983ED4F3869577956795B79580
S1130BF0F795E7959F5FC1F7FE2B880F911D96959A
S1130C00879597F90895FA01EE0FFF1F3096210595
S1130C103105A1F16115710561F48038BFE39B07CB
S1130C2049F168949038810561F08038BFEF9B07E3
S1130C3041F099234AF5FF3FE1053105210519F1FA
S1130C40E8940894E795D901AA2329F4AB2FBE2F81
S1130C50F85FD0F310C0FF5F70F4A695E0F7F739A2
S1130C6050F019F0FF3A38F49F779F930DD00F900E
S1130C7007FC9058089546F00C944B0560E070E032
S1130C8080E89FE308954FE79F775F934F933F93E7
S1130C902F930E94FE062F913F914F915F910E94E6
S1130CA096050C945B0629F416F00C9445050C94F7
S1130CB08F050C944B050E947505A8F39638A0F790
S1130CC007F80F92E8942BE33AEA48EB5FE70E94B7
S1130CD0AC050F920F920F924DB75EB70F920E9420
S1130CE04607E4E5F0E00E948D064F915F91EF9195
S1130CF0FF91E595EE1FFF1F49F0FE57E06844277A
S1130D00EE0F441FFA95E1F74195550B0E94C0067A
S1130D100F9007FE0C94B4060895DF93CF931F93AE
S1130D200F93FF92EF92DF927B018C01689406C0CF
S1130D30DA2EEF010E94A905FE01E894A591259100
S1130D40359145915591A6F3EF010E940B04FE01E4
S1130D509701A801DA9469F7DF90EF90FF900F9163
S1130D601F91CF91DF9108959B01AC0160E070E089
S1130D7080E89FE30C9460040C9445050C947A0776
S1130D800E947505D8F39923C9F3940F511DA3F359
S1130D909150504094F059F0882332F0660F771F39
S1130DA0881F91505040C1F79E3F51052CF7880F82
S1130DB0911D9695879597F908955F3FACF0983EFD
S1130DC09CF0BB27869577956795B79508F4B16035
S1130DD09395C1F7BB0F58F711F460FFE8CF6F5F2D
S1130DE07F4F8F4F9F4FE3CF0C94900516F00C94D8
S1130DF07A070C944B0568940C9445050E9475057C
S1130E00A8F39923C1F3AEF3DF93CF931F930F930A
S1130E10FF92C92FDD2788232AF02197660F771FB9
S1130E20881FDAF720E030E040E85FEB9FE3883981
S1130E3020F0803E38F021968F770E94F403ECE78F
S1130E40F0E004C00E94F403E9EAF0E00E948D0699
S1130E508B01BE01EC01FB2E6F5771097595771F4D
S1130E60880B990B0E940A0528E132E741E35FE30E
S1130E700E94A905AF2D9801AE01FF900F911F911B
S1130E80CF91DF910E940B040C945C05FA01DC0104
S1130E90AA0FBB1F9B01AC01BF5728F4222733279D
S1130EA04427507820C0B75190F4AB2F00244695C6
S1130EB037952795011CA395D2F3002071F0220FDA
S1130EC0331F441FB395DAF30ED00C94F30361304F
S1130ED07105A0E88A07B94630F49B01AC01662786
S1130EE0772788279078309621F0208331834283B6
S1130EF0538308959F3F31F0915020F4879577955F
S1130F006795B795880F911D9695879597F90895DC
S1130F1097FB072E16F4009407D077FD09D00E94A2
S1130F209C0707FC05D03EF4909581959F4F08954A
S1130F30709561957F4F0895AA1BBB1B51E107C0B3
S1130F40AA1FBB1FA617B70710F0A61BB70B881F55
S1130F50991F5A95A9F780959095BC01CD010895E4
S1070F60F894FFCF2F
S9030000FC
