S00D00004C434420382E73726563EC
S11300000C942A000C9434000C9434000C943400A6
S11300100C9434000C9434000C9434000C9434008C
S11300200C9434000C9434000C9434000C9434007C
S11300300C9434000C9434000C9434000C9434006C
S11300400C9434000C9434000C9434000C9434005C
S11300500C94340011241FBECFE5D8E0DEBFCDBF21
S11300600E948C020C94EF020C940000672B09F0A0
S11300709FC0009711F4D89808958130910511F428
S1130080D99808958230910511F4DA98089583304F
S1130090910511F4DB9808958430910511F4DC98EE
S11300A008958530910511F4DD9808958630910501
S11300B011F4DE9808958730910511F4DF980895BE
S11300C08A30910511F4C09808958B30910511F48C
S11300D0C19808958C30910511F4C29808958D301B
S11300E0910511F4C39808958E30910511F4C498C4
S11300F008958F30910511F4C598089580319105C4
S113010011F4C69808958131910511F4C7980895A2
S11301108431910511F4A89808958531910511F45D
S1130120A99808958631910511F4AA980895873104
S1130130910511F4AB9808958831910511F4AC98A8
S113014008958931910511F4AD9808958A31910586
S113015011F4AE9808958B31910511F4AF98089578
S11301608E31910511F4909808958F31910511F411
S1130170919808958032910511F4929808958132EE
S1130180910511F4939808958232910511F494988D
S113019008958332910511F4959808958432910558
S11301A011F496980895859709F09FC0979808953B
S11301B0009711F4D89A08958130910511F4D99AD1
S11301C008958230910511F4DA9A089583309105E7
S11301D011F4DB9A08958430910511F4DC9A0895A2
S11301E08530910511F4DD9A08958630910511F456
S11301F0DE9A08958730910511F4DF9A08958A30C4
S1130200910511F4C09A08958B30910511F4C19AA7
S113021008958C30910511F4C29A08958D3091059A
S113022011F4C39A08958E30910511F4C49A089577
S11302308F30910511F4C59A08958031910511F418
S1130240C69A08958131910511F4C79A08958431AD
S1130250910511F4A89A08958531910511F4A99A8C
S113026008958631910511F4AA9A0895873191056C
S113027011F4AB9A08958831910511F4AC9A08955C
S11302808931910511F4AD9A08958A31910511F4DB
S1130290AE9A08958B31910511F4AF9A08958E3179
S11302A0910511F4909A08958F31910511F4919A62
S11302B008958032910511F4929A0895813291053E
S11302C011F4939A08958232910511F4949A089541
S11302D08332910511F4959A08958432910511F4AD
S11302E0969A0895859709F4979A0895CF93C82FFD
S11302F080FF07C061E070E08EE190E00E9436006C
S113030006C060E070E08EE190E00E943600C1FF1C
S113031007C061E070E08FE190E00E94360006C003
S113032060E070E08FE190E00E943600C2FF07C0F9
S113033061E070E080E290E00E94360006C060E078
S113034070E080E290E00E943600C3FF07C061E0E5
S113035070E081E290E00E94360006C060E070E048
S113036081E290E00E943600C4FF07C061E070E0C3
S113037082E290E00E94360006C060E070E082E213
S113038090E00E943600C5FF07C061E070E083E2A0
S113039090E00E94360006C060E070E083E290E0E6
S11303A00E943600C6FF07C061E070E084E290E07E
S11303B00E94360006C060E070E084E290E00E9493
S11303C03600CC233CF461E070E085E290E00E94CA
S11303D0360006C060E070E085E290E00E943600DE
S11303E0CF910895CF93C82F60E070E08AE190E048
S11303F00E9436008C2F0E94760161E070E08BE150
S113040090E00E9436008FE99FE00197F1F700C069
S1130410000060E070E08BE190E00E9436008FE91C
S11304209FE00197F1F700C00000CF91089581E0AB
S11304300E94F201089560E070E08AE190E00E9479
S1130440360060E070E08BE190E00E9436002FEF10
S113045089EF90E0215080409040E1F700C0000017
S113046080E30E94F2018FE19EE40197F1F700C05E
S1130470000080E30E94F2018FE99FE00197F1F709
S113048000C0000080E30E94F2018FE39CE9019721
S1130490F1F700C0000088E30E94F2018CE00E94A2
S11304A0F20181E00E94F20186E00E94F2010895C7
S11304B0CF93C82F61E070E08AE190E00E9436009B
S11304C08C2F0E94760161E070E08BE190E00E9445
S11304D036008FE99FE00197F1F700C0000060E06B
S11304E070E08BE190E00E9436008FE99FE0019775
S11304F0F1F700C00000CF910895CF93DF93EC0192
S11305008881882331F021960E94580289918111B3
S1130510FBCFDF91CF910895CF93DF93CDB7DEB7B3
S113052028970FB6F894DEBF0FBECDBF8FEF81BB07
S113053084BB87BB80E687B981E886B918BA0E9474
S11305401B020E941702369A3699FECF15B118BBCA
S113055081E80E94F2014AE0BE016F5F7F4F812F64
S113056090E00E94BA020E941702CE0101960E94F6
S11305707D02E9CFBB274A3031F4992322F4BDE24E
S1130580909581959F4F0C94C602BB27FB0155277C
S1130590AA27880F991FAA1FA41710F0A41B8395DC
S11305A05051B9F7A05DAA3308F0A95DA193009753
S11305B079F7B111B1931192CB010C94DF02DC01F4
S11305C0FC01672F71917723E1F7329704C07C9186
S11305D06D9370836291AE17BF07C8F30895F894C2
S10505E0FFCF47
S9030000FC
