S0150000554152545F52656365697665722E737265633F
S11300000C942A000C943C000C943C000C943C008E
S11300100C943C000C943C000C943C000C943C006C
S11300200C943C000C943C000C943C000C943C005C
S11300300C943C000C943C000C943C000C943C004C
S11300400C943C000C943C000C943C000C943C003C
S11300500C943C0011241FBECFE5D8E0DEBFCDBF19
S113006020E0A0E6B0E001C01D92A037B207E1F79E
S11300700E9497000C94C6000C9400001BB888E101
S11300808AB986E880BD83E389B910BC08955D9B75
S1130090FECF8CB908955F9BFECF8BB18C7111F4A8
S11300A08CB108958FE00895E0E6F0E0A8E6B0E0B2
S11300B088E690E021912D93E817F907D9F7089580
S11300C01F93CF93DF936CEB72E0A8E6B0E010E0EF
S11300D0D0E0CFEF41E050E022C018BA843091055F
S11300E02CF02081209525BBCBBB04C0C5BB20814F
S11300F020952BBB9A01082E02C0220F331F0A94AD
S1130100E2F728BB24E62A95F1F701963196883068
S1130110910519F7615071096115710521F0FD010F
S1130120812F9D2FDACFDF91CF911F91089584B74E
S1130130806884BF84B7806884BF8FEF8ABB87BB25
S113014084BB81BB0E943E000E944B0080936000F0
S1130150C1E0D0E06894FF24F6F800E010E008C0A5
S1130160F2BA0E9454000E94600012BAC02FD12F2C
S113017081E60E9447000E944B00FE01E05AFF4FB7
S113018080832196C830D1059CF3EACFF894FFCF41
S9030000FC
